{
  "_format": "hh-sol-artifact-1",
  "contractName": "DynamicSvgNFT",
  "sourceName": "contracts/DynamicSvgNFT.sol",
  "abi": [
    {
      "inputs": [
        {
          "internalType": "address",
          "name": "priceFeedAddress",
          "type": "address"
        },
        {
          "internalType": "string",
          "name": "highImage",
          "type": "string"
        },
        {
          "internalType": "string",
          "name": "lowImage",
          "type": "string"
        }
      ],
      "stateMutability": "nonpayable",
      "type": "constructor"
    },
    {
      "anonymous": false,
      "inputs": [
        {
          "indexed": true,
          "internalType": "address",
          "name": "owner",
          "type": "address"
        },
        {
          "indexed": true,
          "internalType": "address",
          "name": "approved",
          "type": "address"
        },
        {
          "indexed": true,
          "internalType": "uint256",
          "name": "tokenId",
          "type": "uint256"
        }
      ],
      "name": "Approval",
      "type": "event"
    },
    {
      "anonymous": false,
      "inputs": [
        {
          "indexed": true,
          "internalType": "address",
          "name": "owner",
          "type": "address"
        },
        {
          "indexed": true,
          "internalType": "address",
          "name": "operator",
          "type": "address"
        },
        {
          "indexed": false,
          "internalType": "bool",
          "name": "approved",
          "type": "bool"
        }
      ],
      "name": "ApprovalForAll",
      "type": "event"
    },
    {
      "anonymous": false,
      "inputs": [
        {
          "indexed": true,
          "internalType": "uint256",
          "name": "tokenId",
          "type": "uint256"
        },
        {
          "indexed": false,
          "internalType": "int256",
          "name": "highValue",
          "type": "int256"
        }
      ],
      "name": "MintedNFT",
      "type": "event"
    },
    {
      "anonymous": false,
      "inputs": [
        {
          "indexed": true,
          "internalType": "address",
          "name": "from",
          "type": "address"
        },
        {
          "indexed": true,
          "internalType": "address",
          "name": "to",
          "type": "address"
        },
        {
          "indexed": true,
          "internalType": "uint256",
          "name": "tokenId",
          "type": "uint256"
        }
      ],
      "name": "Transfer",
      "type": "event"
    },
    {
      "inputs": [
        {
          "internalType": "address",
          "name": "to",
          "type": "address"
        },
        {
          "internalType": "uint256",
          "name": "tokenId",
          "type": "uint256"
        }
      ],
      "name": "approve",
      "outputs": [],
      "stateMutability": "nonpayable",
      "type": "function"
    },
    {
      "inputs": [
        {
          "internalType": "address",
          "name": "owner",
          "type": "address"
        }
      ],
      "name": "balanceOf",
      "outputs": [
        {
          "internalType": "uint256",
          "name": "",
          "type": "uint256"
        }
      ],
      "stateMutability": "view",
      "type": "function"
    },
    {
      "inputs": [
        {
          "internalType": "uint256",
          "name": "tokenId",
          "type": "uint256"
        }
      ],
      "name": "getApproved",
      "outputs": [
        {
          "internalType": "address",
          "name": "",
          "type": "address"
        }
      ],
      "stateMutability": "view",
      "type": "function"
    },
    {
      "inputs": [],
      "name": "getHighSVG",
      "outputs": [
        {
          "internalType": "string",
          "name": "",
          "type": "string"
        }
      ],
      "stateMutability": "view",
      "type": "function"
    },
    {
      "inputs": [],
      "name": "getLowSVG",
      "outputs": [
        {
          "internalType": "string",
          "name": "",
          "type": "string"
        }
      ],
      "stateMutability": "view",
      "type": "function"
    },
    {
      "inputs": [],
      "name": "getPriceFeed",
      "outputs": [
        {
          "internalType": "contract AggregatorV3Interface",
          "name": "",
          "type": "address"
        }
      ],
      "stateMutability": "view",
      "type": "function"
    },
    {
      "inputs": [],
      "name": "getTokenCounter",
      "outputs": [
        {
          "internalType": "uint256",
          "name": "",
          "type": "uint256"
        }
      ],
      "stateMutability": "view",
      "type": "function"
    },
    {
      "inputs": [
        {
          "internalType": "address",
          "name": "owner",
          "type": "address"
        },
        {
          "internalType": "address",
          "name": "operator",
          "type": "address"
        }
      ],
      "name": "isApprovedForAll",
      "outputs": [
        {
          "internalType": "bool",
          "name": "",
          "type": "bool"
        }
      ],
      "stateMutability": "view",
      "type": "function"
    },
    {
      "inputs": [
        {
          "internalType": "int256",
          "name": "highValue",
          "type": "int256"
        }
      ],
      "name": "mintNft",
      "outputs": [],
      "stateMutability": "nonpayable",
      "type": "function"
    },
    {
      "inputs": [],
      "name": "name",
      "outputs": [
        {
          "internalType": "string",
          "name": "",
          "type": "string"
        }
      ],
      "stateMutability": "view",
      "type": "function"
    },
    {
      "inputs": [
        {
          "internalType": "uint256",
          "name": "tokenId",
          "type": "uint256"
        }
      ],
      "name": "ownerOf",
      "outputs": [
        {
          "internalType": "address",
          "name": "",
          "type": "address"
        }
      ],
      "stateMutability": "view",
      "type": "function"
    },
    {
      "inputs": [
        {
          "internalType": "uint256",
          "name": "",
          "type": "uint256"
        }
      ],
      "name": "s_tokenIdToHighValue",
      "outputs": [
        {
          "internalType": "int256",
          "name": "",
          "type": "int256"
        }
      ],
      "stateMutability": "view",
      "type": "function"
    },
    {
      "inputs": [
        {
          "internalType": "address",
          "name": "from",
          "type": "address"
        },
        {
          "internalType": "address",
          "name": "to",
          "type": "address"
        },
        {
          "internalType": "uint256",
          "name": "tokenId",
          "type": "uint256"
        }
      ],
      "name": "safeTransferFrom",
      "outputs": [],
      "stateMutability": "nonpayable",
      "type": "function"
    },
    {
      "inputs": [
        {
          "internalType": "address",
          "name": "from",
          "type": "address"
        },
        {
          "internalType": "address",
          "name": "to",
          "type": "address"
        },
        {
          "internalType": "uint256",
          "name": "tokenId",
          "type": "uint256"
        },
        {
          "internalType": "bytes",
          "name": "data",
          "type": "bytes"
        }
      ],
      "name": "safeTransferFrom",
      "outputs": [],
      "stateMutability": "nonpayable",
      "type": "function"
    },
    {
      "inputs": [
        {
          "internalType": "address",
          "name": "operator",
          "type": "address"
        },
        {
          "internalType": "bool",
          "name": "approved",
          "type": "bool"
        }
      ],
      "name": "setApprovalForAll",
      "outputs": [],
      "stateMutability": "nonpayable",
      "type": "function"
    },
    {
      "inputs": [
        {
          "internalType": "bytes4",
          "name": "interfaceId",
          "type": "bytes4"
        }
      ],
      "name": "supportsInterface",
      "outputs": [
        {
          "internalType": "bool",
          "name": "",
          "type": "bool"
        }
      ],
      "stateMutability": "view",
      "type": "function"
    },
    {
      "inputs": [
        {
          "internalType": "string",
          "name": "svg",
          "type": "string"
        }
      ],
      "name": "svgToImageURI",
      "outputs": [
        {
          "internalType": "string",
          "name": "",
          "type": "string"
        }
      ],
      "stateMutability": "pure",
      "type": "function"
    },
    {
      "inputs": [],
      "name": "symbol",
      "outputs": [
        {
          "internalType": "string",
          "name": "",
          "type": "string"
        }
      ],
      "stateMutability": "view",
      "type": "function"
    },
    {
      "inputs": [
        {
          "internalType": "uint256",
          "name": "tokenId",
          "type": "uint256"
        }
      ],
      "name": "tokenURI",
      "outputs": [
        {
          "internalType": "string",
          "name": "",
          "type": "string"
        }
      ],
      "stateMutability": "view",
      "type": "function"
    },
    {
      "inputs": [
        {
          "internalType": "address",
          "name": "from",
          "type": "address"
        },
        {
          "internalType": "address",
          "name": "to",
          "type": "address"
        },
        {
          "internalType": "uint256",
          "name": "tokenId",
          "type": "uint256"
        }
      ],
      "name": "transferFrom",
      "outputs": [],
      "stateMutability": "nonpayable",
      "type": "function"
    }
  ],
  "bytecode": "0x60a06040523480156200001157600080fd5b5060405162003c5238038062003c52833981810160405281019062000037919062000575565b6040518060400160405280600d81526020017f44796e616d69635376674e4654000000000000000000000000000000000000008152506040518060400160405280600381526020017f44534e00000000000000000000000000000000000000000000000000000000008152508160009081620000b491906200085a565b508060019081620000c691906200085a565b5050506000600681905550620000e2826200015260201b60201c565b60079081620000f291906200085a565b5062000104816200015260201b60201c565b600890816200011491906200085a565b508273ffffffffffffffffffffffffffffffffffffffff1660808173ffffffffffffffffffffffffffffffffffffffff168152505050505062000ae0565b606060006200018d836040516020016200016d919062000983565b604051602081830303815290604052620001f060201b62000ee31760201c565b90506040518060400160405280601a81526020017f646174613a696d6167652f7376672b786d6c3b6261736536342c00000000000081525081604051602001620001d99291906200099c565b604051602081830303815290604052915050919050565b60606000825103620002145760405180602001604052806000815250905062000378565b600060405180606001604052806040815260200162003c126040913990506000600360028551620002469190620009f3565b62000252919062000a5d565b600462000260919062000a95565b90506000602082620002739190620009f3565b67ffffffffffffffff8111156200028f576200028e62000411565b5b6040519080825280601f01601f191660200182016040528015620002c25781602001600182028036833780820191505090505b509050818152600183018586518101602084015b8183101562000333576003830192508251603f8160121c168501518253600182019150603f81600c1c168501518253600182019150603f8160061c168501518253600182019150603f8116850151825360018201915050620002d6565b60038951066001811462000350576002811462000361576200036c565b613d3d60f01b60028303526200036c565b603d60f81b60018303525b50505050508093505050505b919050565b6000604051905090565b600080fd5b600080fd5b600073ffffffffffffffffffffffffffffffffffffffff82169050919050565b6000620003be8262000391565b9050919050565b620003d081620003b1565b8114620003dc57600080fd5b50565b600081519050620003f081620003c5565b92915050565b600080fd5b600080fd5b6000601f19601f8301169050919050565b7f4e487b7100000000000000000000000000000000000000000000000000000000600052604160045260246000fd5b6200044b8262000400565b810181811067ffffffffffffffff821117156200046d576200046c62000411565b5b80604052505050565b6000620004826200037d565b905062000490828262000440565b919050565b600067ffffffffffffffff821115620004b357620004b262000411565b5b620004be8262000400565b9050602081019050919050565b60005b83811015620004eb578082015181840152602081019050620004ce565b60008484015250505050565b60006200050e620005088462000495565b62000476565b9050828152602081018484840111156200052d576200052c620003fb565b5b6200053a848285620004cb565b509392505050565b600082601f8301126200055a5762000559620003f6565b5b81516200056c848260208601620004f7565b91505092915050565b60008060006060848603121562000591576200059062000387565b5b6000620005a186828701620003df565b935050602084015167ffffffffffffffff811115620005c557620005c46200038c565b5b620005d38682870162000542565b925050604084015167ffffffffffffffff811115620005f757620005f66200038c565b5b620006058682870162000542565b9150509250925092565b600081519050919050565b7f4e487b7100000000000000000000000000000000000000000000000000000000600052602260045260246000fd5b600060028204905060018216806200066257607f821691505b6020821081036200067857620006776200061a565b5b50919050565b60008190508160005260206000209050919050565b60006020601f8301049050919050565b600082821b905092915050565b600060088302620006e27fffffffffffffffffffffffffffffffffffffffffffffffffffffffffffffffff82620006a3565b620006ee8683620006a3565b95508019841693508086168417925050509392505050565b6000819050919050565b6000819050919050565b60006200073b620007356200072f8462000706565b62000710565b62000706565b9050919050565b6000819050919050565b62000757836200071a565b6200076f620007668262000742565b848454620006b0565b825550505050565b600090565b6200078662000777565b620007938184846200074c565b505050565b5b81811015620007bb57620007af6000826200077c565b60018101905062000799565b5050565b601f8211156200080a57620007d4816200067e565b620007df8462000693565b81016020851015620007ef578190505b62000807620007fe8562000693565b83018262000798565b50505b505050565b600082821c905092915050565b60006200082f600019846008026200080f565b1980831691505092915050565b60006200084a83836200081c565b9150826002028217905092915050565b62000865826200060f565b67ffffffffffffffff81111562000881576200088062000411565b5b6200088d825462000649565b6200089a828285620007bf565b600060209050601f831160018114620008d25760008415620008bd578287015190505b620008c985826200083c565b86555062000939565b601f198416620008e2866200067e565b60005b828110156200090c57848901518255600182019150602085019450602081019050620008e5565b868310156200092c578489015162000928601f8916826200081c565b8355505b6001600288020188555050505b505050505050565b600081905092915050565b600062000959826200060f565b62000965818562000941565b935062000977818560208601620004cb565b80840191505092915050565b60006200099182846200094c565b915081905092915050565b6000620009aa82856200094c565b9150620009b882846200094c565b91508190509392505050565b7f4e487b7100000000000000000000000000000000000000000000000000000000600052601160045260246000fd5b600062000a008262000706565b915062000a0d8362000706565b925082820190508082111562000a285762000a27620009c4565b5b92915050565b7f4e487b7100000000000000000000000000000000000000000000000000000000600052601260045260246000fd5b600062000a6a8262000706565b915062000a778362000706565b92508262000a8a5762000a8962000a2e565b5b828204905092915050565b600062000aa28262000706565b915062000aaf8362000706565b925082820262000abf8162000706565b9150828204841483151762000ad95762000ad8620009c4565b5b5092915050565b60805161310f62000b0360003960008181610ad70152610b79015261310f6000f3fe608060405234801561001057600080fd5b506004361061012c5760003560e01c806370a08231116100ad578063b88d4fde11610071578063b88d4fde14610343578063c87b56dd1461035f578063e425aded1461038f578063e985e9c5146103bf578063ed28a122146103ef5761012c565b806370a082311461029d57806376f6056b146102cd57806395d89b41146102eb5780639e87a5cd14610309578063a22cb465146103275761012c565b806323b872dd116100f457806323b872dd146101e757806330d871c61461020357806342842e0e146102335780636352211e1461024f5780636e02007d1461027f5761012c565b806301ffc9a71461013157806306fdde0314610161578063081812fc1461017f578063095ea7b3146101af5780631e930812146101cb575b600080fd5b61014b60048036038101906101469190611dba565b61040d565b6040516101589190611e02565b60405180910390f35b6101696104ef565b6040516101769190611ead565b60405180910390f35b61019960048036038101906101949190611f05565b610581565b6040516101a69190611f73565b60405180910390f35b6101c960048036038101906101c49190611fba565b6105c7565b005b6101e560048036038101906101e09190612030565b6106de565b005b61020160048036038101906101fc919061205d565b61075b565b005b61021d600480360381019061021891906121e5565b6107bb565b60405161022a9190611ead565b60405180910390f35b61024d6004803603810190610248919061205d565b610848565b005b61026960048036038101906102649190611f05565b610868565b6040516102769190611f73565b60405180910390f35b6102876108ee565b604051610294919061223d565b60405180910390f35b6102b760048036038101906102b29190612258565b6108f8565b6040516102c4919061223d565b60405180910390f35b6102d56109af565b6040516102e29190611ead565b60405180910390f35b6102f3610a41565b6040516103009190611ead565b60405180910390f35b610311610ad3565b60405161031e91906122e4565b60405180910390f35b610341600480360381019061033c919061232b565b610afb565b005b61035d6004803603810190610358919061240c565b610b11565b005b61037960048036038101906103749190611f05565b610b73565b6040516103869190611ead565b60405180910390f35b6103a960048036038101906103a49190611f05565b610da5565b6040516103b6919061249e565b60405180910390f35b6103d960048036038101906103d491906124b9565b610dbd565b6040516103e69190611e02565b60405180910390f35b6103f7610e51565b6040516104049190611ead565b60405180910390f35b60007f80ac58cd000000000000000000000000000000000000000000000000000000007bffffffffffffffffffffffffffffffffffffffffffffffffffffffff1916827bffffffffffffffffffffffffffffffffffffffffffffffffffffffff191614806104d857507f5b5e139f000000000000000000000000000000000000000000000000000000007bffffffffffffffffffffffffffffffffffffffffffffffffffffffff1916827bffffffffffffffffffffffffffffffffffffffffffffffffffffffff1916145b806104e857506104e78261105b565b5b9050919050565b6060600080546104fe90612528565b80601f016020809104026020016040519081016040528092919081815260200182805461052a90612528565b80156105775780601f1061054c57610100808354040283529160200191610577565b820191906000526020600020905b81548152906001019060200180831161055a57829003601f168201915b5050505050905090565b600061058c826110c5565b6004600083815260200190815260200160002060009054906101000a900473ffffffffffffffffffffffffffffffffffffffff169050919050565b60006105d282610868565b90508073ffffffffffffffffffffffffffffffffffffffff168373ffffffffffffffffffffffffffffffffffffffff1603610642576040517f08c379a0000000000000000000000000000000000000000000000000000000008152600401610639906125cb565b60405180910390fd5b8073ffffffffffffffffffffffffffffffffffffffff16610661611110565b73ffffffffffffffffffffffffffffffffffffffff161480610690575061068f8161068a611110565b610dbd565b5b6106cf576040517f08c379a00000000000000000000000000000000000000000000000000000000081526004016106c69061265d565b60405180910390fd5b6106d98383611118565b505050565b806009600060065481526020019081526020016000208190555060016006600082825461070b91906126ac565b9250508190555061071e336006546111d1565b6006547f4d3c7ced1957a1912fceb7fe377c2a905408de696001f439fe57cc45e42f4f5282604051610750919061249e565b60405180910390a250565b61076c610766611110565b826111ef565b6107ab576040517f08c379a00000000000000000000000000000000000000000000000000000000081526004016107a290612752565b60405180910390fd5b6107b6838383611284565b505050565b606060006107e7836040516020016107d391906127ae565b604051602081830303815290604052610ee3565b90506040518060400160405280601a81526020017f646174613a696d6167652f7376672b786d6c3b6261736536342c000000000000815250816040516020016108319291906127c5565b604051602081830303815290604052915050919050565b61086383838360405180602001604052806000815250610b11565b505050565b6000806108748361157d565b9050600073ffffffffffffffffffffffffffffffffffffffff168173ffffffffffffffffffffffffffffffffffffffff16036108e5576040517f08c379a00000000000000000000000000000000000000000000000000000000081526004016108dc90612835565b60405180910390fd5b80915050919050565b6000600654905090565b60008073ffffffffffffffffffffffffffffffffffffffff168273ffffffffffffffffffffffffffffffffffffffff1603610968576040517f08c379a000000000000000000000000000000000000000000000000000000000815260040161095f906128c7565b60405180910390fd5b600360008373ffffffffffffffffffffffffffffffffffffffff1673ffffffffffffffffffffffffffffffffffffffff168152602001908152602001600020549050919050565b6060600780546109be90612528565b80601f01602080910402602001604051908101604052809291908181526020018280546109ea90612528565b8015610a375780601f10610a0c57610100808354040283529160200191610a37565b820191906000526020600020905b815481529060010190602001808311610a1a57829003601f168201915b5050505050905090565b606060018054610a5090612528565b80601f0160208091040260200160405190810160405280929190818152602001828054610a7c90612528565b8015610ac95780601f10610a9e57610100808354040283529160200191610ac9565b820191906000526020600020905b815481529060010190602001808311610aac57829003601f168201915b5050505050905090565b60007f0000000000000000000000000000000000000000000000000000000000000000905090565b610b0d610b06611110565b83836115ba565b5050565b610b22610b1c611110565b836111ef565b610b61576040517f08c379a0000000000000000000000000000000000000000000000000000000008152600401610b5890612752565b60405180910390fd5b610b6d84848484611726565b50505050565b606060007f000000000000000000000000000000000000000000000000000000000000000073ffffffffffffffffffffffffffffffffffffffff1663feaf968c6040518163ffffffff1660e01b815260040160a060405180830381865afa158015610be2573d6000803e3d6000fd5b505050506040513d601f19601f82011682018060405250810190610c069190612953565b505050915050600060088054610c1b90612528565b80601f0160208091040260200160405190810160405280929190818152602001828054610c4790612528565b8015610c945780601f10610c6957610100808354040283529160200191610c94565b820191906000526020600020905b815481529060010190602001808311610c7757829003601f168201915b5050505050905060096000858152602001908152602001600020548212610d435760078054610cc290612528565b80601f0160208091040260200160405190810160405280929190818152602001828054610cee90612528565b8015610d3b5780601f10610d1057610100808354040283529160200191610d3b565b820191906000526020600020905b815481529060010190602001808311610d1e57829003601f168201915b505050505090505b610d4b611782565b610d7c610d566104ef565b83604051602001610d68929190612b96565b604051602081830303815290604052610ee3565b604051602001610d8d9291906127c5565b60405160208183030381529060405292505050919050565b60096020528060005260406000206000915090505481565b6000600560008473ffffffffffffffffffffffffffffffffffffffff1673ffffffffffffffffffffffffffffffffffffffff16815260200190815260200160002060008373ffffffffffffffffffffffffffffffffffffffff1673ffffffffffffffffffffffffffffffffffffffff16815260200190815260200160002060009054906101000a900460ff16905092915050565b606060088054610e6090612528565b80601f0160208091040260200160405190810160405280929190818152602001828054610e8c90612528565b8015610ed95780601f10610eae57610100808354040283529160200191610ed9565b820191906000526020600020905b815481529060010190602001808311610ebc57829003601f168201915b5050505050905090565b60606000825103610f0557604051806020016040528060008152509050611056565b600060405180606001604052806040815260200161309a6040913990506000600360028551610f3491906126ac565b610f3e9190612c15565b6004610f4a9190612c46565b90506000602082610f5b91906126ac565b67ffffffffffffffff811115610f7457610f736120ba565b5b6040519080825280601f01601f191660200182016040528015610fa65781602001600182028036833780820191505090505b509050818152600183018586518101602084015b81831015611015576003830192508251603f8160121c168501518253600182019150603f81600c1c168501518253600182019150603f8160061c168501518253600182019150603f8116850151825360018201915050610fba565b60038951066001811461102f576002811461103f5761104a565b613d3d60f01b600283035261104a565b603d60f81b60018303525b50505050508093505050505b919050565b60007f01ffc9a7000000000000000000000000000000000000000000000000000000007bffffffffffffffffffffffffffffffffffffffffffffffffffffffff1916827bffffffffffffffffffffffffffffffffffffffffffffffffffffffff1916149050919050565b6110ce816117bf565b61110d576040517f08c379a000000000000000000000000000000000000000000000000000000000815260040161110490612835565b60405180910390fd5b50565b600033905090565b816004600083815260200190815260200160002060006101000a81548173ffffffffffffffffffffffffffffffffffffffff021916908373ffffffffffffffffffffffffffffffffffffffff160217905550808273ffffffffffffffffffffffffffffffffffffffff1661118b83610868565b73ffffffffffffffffffffffffffffffffffffffff167f8c5be1e5ebec7d5bd14f71427d1e84f3dd0314c0f7b2291e5b200ac8c7c3b92560405160405180910390a45050565b6111eb828260405180602001604052806000815250611800565b5050565b6000806111fb83610868565b90508073ffffffffffffffffffffffffffffffffffffffff168473ffffffffffffffffffffffffffffffffffffffff16148061123d575061123c8185610dbd565b5b8061127b57508373ffffffffffffffffffffffffffffffffffffffff1661126384610581565b73ffffffffffffffffffffffffffffffffffffffff16145b91505092915050565b8273ffffffffffffffffffffffffffffffffffffffff166112a482610868565b73ffffffffffffffffffffffffffffffffffffffff16146112fa576040517f08c379a00000000000000000000000000000000000000000000000000000000081526004016112f190612cfa565b60405180910390fd5b600073ffffffffffffffffffffffffffffffffffffffff168273ffffffffffffffffffffffffffffffffffffffff1603611369576040517f08c379a000000000000000000000000000000000000000000000000000000000815260040161136090612d8c565b60405180910390fd5b611376838383600161185b565b8273ffffffffffffffffffffffffffffffffffffffff1661139682610868565b73ffffffffffffffffffffffffffffffffffffffff16146113ec576040517f08c379a00000000000000000000000000000000000000000000000000000000081526004016113e390612cfa565b60405180910390fd5b6004600082815260200190815260200160002060006101000a81549073ffffffffffffffffffffffffffffffffffffffff02191690556001600360008573ffffffffffffffffffffffffffffffffffffffff1673ffffffffffffffffffffffffffffffffffffffff168152602001908152602001600020600082825403925050819055506001600360008473ffffffffffffffffffffffffffffffffffffffff1673ffffffffffffffffffffffffffffffffffffffff16815260200190815260200160002060008282540192505081905550816002600083815260200190815260200160002060006101000a81548173ffffffffffffffffffffffffffffffffffffffff021916908373ffffffffffffffffffffffffffffffffffffffff160217905550808273ffffffffffffffffffffffffffffffffffffffff168473ffffffffffffffffffffffffffffffffffffffff167fddf252ad1be2c89b69c2b068fc378daa952ba7f163c4a11628f55a4df523b3ef60405160405180910390a46115788383836001611981565b505050565b60006002600083815260200190815260200160002060009054906101000a900473ffffffffffffffffffffffffffffffffffffffff169050919050565b8173ffffffffffffffffffffffffffffffffffffffff168373ffffffffffffffffffffffffffffffffffffffff1603611628576040517f08c379a000000000000000000000000000000000000000000000000000000000815260040161161f90612df8565b60405180910390fd5b80600560008573ffffffffffffffffffffffffffffffffffffffff1673ffffffffffffffffffffffffffffffffffffffff16815260200190815260200160002060008473ffffffffffffffffffffffffffffffffffffffff1673ffffffffffffffffffffffffffffffffffffffff16815260200190815260200160002060006101000a81548160ff0219169083151502179055508173ffffffffffffffffffffffffffffffffffffffff168373ffffffffffffffffffffffffffffffffffffffff167f17307eab39ab6107e8899845ad3d59bd9653f200f220920489ca2b5937696c31836040516117199190611e02565b60405180910390a3505050565b611731848484611284565b61173d84848484611987565b61177c576040517f08c379a000000000000000000000000000000000000000000000000000000000815260040161177390612e8a565b60405180910390fd5b50505050565b60606040518060400160405280601d81526020017f646174613a6170706c69636174696f6e2f6a736f6e3b6261736536342c000000815250905090565b60008073ffffffffffffffffffffffffffffffffffffffff166117e18361157d565b73ffffffffffffffffffffffffffffffffffffffff1614159050919050565b61180a8383611b0e565b6118176000848484611987565b611856576040517f08c379a000000000000000000000000000000000000000000000000000000000815260040161184d90612e8a565b60405180910390fd5b505050565b600181111561197b57600073ffffffffffffffffffffffffffffffffffffffff168473ffffffffffffffffffffffffffffffffffffffff16146118ef5780600360008673ffffffffffffffffffffffffffffffffffffffff1673ffffffffffffffffffffffffffffffffffffffff16815260200190815260200160002060008282546118e79190612eaa565b925050819055505b600073ffffffffffffffffffffffffffffffffffffffff168373ffffffffffffffffffffffffffffffffffffffff161461197a5780600360008573ffffffffffffffffffffffffffffffffffffffff1673ffffffffffffffffffffffffffffffffffffffff168152602001908152602001600020600082825461197291906126ac565b925050819055505b5b50505050565b50505050565b60006119a88473ffffffffffffffffffffffffffffffffffffffff16611d2b565b15611b01578373ffffffffffffffffffffffffffffffffffffffff1663150b7a026119d1611110565b8786866040518563ffffffff1660e01b81526004016119f39493929190612f33565b6020604051808303816000875af1925050508015611a2f57506040513d601f19601f82011682018060405250810190611a2c9190612f94565b60015b611ab1573d8060008114611a5f576040519150601f19603f3d011682016040523d82523d6000602084013e611a64565b606091505b506000815103611aa9576040517f08c379a0000000000000000000000000000000000000000000000000000000008152600401611aa090612e8a565b60405180910390fd5b805181602001fd5b63150b7a0260e01b7bffffffffffffffffffffffffffffffffffffffffffffffffffffffff1916817bffffffffffffffffffffffffffffffffffffffffffffffffffffffff191614915050611b06565b600190505b949350505050565b600073ffffffffffffffffffffffffffffffffffffffff168273ffffffffffffffffffffffffffffffffffffffff1603611b7d576040517f08c379a0000000000000000000000000000000000000000000000000000000008152600401611b749061300d565b60405180910390fd5b611b86816117bf565b15611bc6576040517f08c379a0000000000000000000000000000000000000000000000000000000008152600401611bbd90613079565b60405180910390fd5b611bd460008383600161185b565b611bdd816117bf565b15611c1d576040517f08c379a0000000000000000000000000000000000000000000000000000000008152600401611c1490613079565b60405180910390fd5b6001600360008473ffffffffffffffffffffffffffffffffffffffff1673ffffffffffffffffffffffffffffffffffffffff16815260200190815260200160002060008282540192505081905550816002600083815260200190815260200160002060006101000a81548173ffffffffffffffffffffffffffffffffffffffff021916908373ffffffffffffffffffffffffffffffffffffffff160217905550808273ffffffffffffffffffffffffffffffffffffffff16600073ffffffffffffffffffffffffffffffffffffffff167fddf252ad1be2c89b69c2b068fc378daa952ba7f163c4a11628f55a4df523b3ef60405160405180910390a4611d27600083836001611981565b5050565b6000808273ffffffffffffffffffffffffffffffffffffffff163b119050919050565b6000604051905090565b600080fd5b600080fd5b60007fffffffff0000000000000000000000000000000000000000000000000000000082169050919050565b611d9781611d62565b8114611da257600080fd5b50565b600081359050611db481611d8e565b92915050565b600060208284031215611dd057611dcf611d58565b5b6000611dde84828501611da5565b91505092915050565b60008115159050919050565b611dfc81611de7565b82525050565b6000602082019050611e176000830184611df3565b92915050565b600081519050919050565b600082825260208201905092915050565b60005b83811015611e57578082015181840152602081019050611e3c565b60008484015250505050565b6000601f19601f8301169050919050565b6000611e7f82611e1d565b611e898185611e28565b9350611e99818560208601611e39565b611ea281611e63565b840191505092915050565b60006020820190508181036000830152611ec78184611e74565b905092915050565b6000819050919050565b611ee281611ecf565b8114611eed57600080fd5b50565b600081359050611eff81611ed9565b92915050565b600060208284031215611f1b57611f1a611d58565b5b6000611f2984828501611ef0565b91505092915050565b600073ffffffffffffffffffffffffffffffffffffffff82169050919050565b6000611f5d82611f32565b9050919050565b611f6d81611f52565b82525050565b6000602082019050611f886000830184611f64565b92915050565b611f9781611f52565b8114611fa257600080fd5b50565b600081359050611fb481611f8e565b92915050565b60008060408385031215611fd157611fd0611d58565b5b6000611fdf85828601611fa5565b9250506020611ff085828601611ef0565b9150509250929050565b6000819050919050565b61200d81611ffa565b811461201857600080fd5b50565b60008135905061202a81612004565b92915050565b60006020828403121561204657612045611d58565b5b60006120548482850161201b565b91505092915050565b60008060006060848603121561207657612075611d58565b5b600061208486828701611fa5565b935050602061209586828701611fa5565b92505060406120a686828701611ef0565b9150509250925092565b600080fd5b600080fd5b7f4e487b7100000000000000000000000000000000000000000000000000000000600052604160045260246000fd5b6120f282611e63565b810181811067ffffffffffffffff82111715612111576121106120ba565b5b80604052505050565b6000612124611d4e565b905061213082826120e9565b919050565b600067ffffffffffffffff8211156121505761214f6120ba565b5b61215982611e63565b9050602081019050919050565b82818337600083830152505050565b600061218861218384612135565b61211a565b9050828152602081018484840111156121a4576121a36120b5565b5b6121af848285612166565b509392505050565b600082601f8301126121cc576121cb6120b0565b5b81356121dc848260208601612175565b91505092915050565b6000602082840312156121fb576121fa611d58565b5b600082013567ffffffffffffffff81111561221957612218611d5d565b5b612225848285016121b7565b91505092915050565b61223781611ecf565b82525050565b6000602082019050612252600083018461222e565b92915050565b60006020828403121561226e5761226d611d58565b5b600061227c84828501611fa5565b91505092915050565b6000819050919050565b60006122aa6122a56122a084611f32565b612285565b611f32565b9050919050565b60006122bc8261228f565b9050919050565b60006122ce826122b1565b9050919050565b6122de816122c3565b82525050565b60006020820190506122f960008301846122d5565b92915050565b61230881611de7565b811461231357600080fd5b50565b600081359050612325816122ff565b92915050565b6000806040838503121561234257612341611d58565b5b600061235085828601611fa5565b925050602061236185828601612316565b9150509250929050565b600067ffffffffffffffff821115612386576123856120ba565b5b61238f82611e63565b9050602081019050919050565b60006123af6123aa8461236b565b61211a565b9050828152602081018484840111156123cb576123ca6120b5565b5b6123d6848285612166565b509392505050565b600082601f8301126123f3576123f26120b0565b5b813561240384826020860161239c565b91505092915050565b6000806000806080858703121561242657612425611d58565b5b600061243487828801611fa5565b945050602061244587828801611fa5565b935050604061245687828801611ef0565b925050606085013567ffffffffffffffff81111561247757612476611d5d565b5b612483878288016123de565b91505092959194509250565b61249881611ffa565b82525050565b60006020820190506124b3600083018461248f565b92915050565b600080604083850312156124d0576124cf611d58565b5b60006124de85828601611fa5565b92505060206124ef85828601611fa5565b9150509250929050565b7f4e487b7100000000000000000000000000000000000000000000000000000000600052602260045260246000fd5b6000600282049050600182168061254057607f821691505b602082108103612553576125526124f9565b5b50919050565b7f4552433732313a20617070726f76616c20746f2063757272656e74206f776e6560008201527f7200000000000000000000000000000000000000000000000000000000000000602082015250565b60006125b5602183611e28565b91506125c082612559565b604082019050919050565b600060208201905081810360008301526125e4816125a8565b9050919050565b7f4552433732313a20617070726f76652063616c6c6572206973206e6f7420746f60008201527f6b656e206f776e6572206f7220617070726f76656420666f7220616c6c000000602082015250565b6000612647603d83611e28565b9150612652826125eb565b604082019050919050565b600060208201905081810360008301526126768161263a565b9050919050565b7f4e487b7100000000000000000000000000000000000000000000000000000000600052601160045260246000fd5b60006126b782611ecf565b91506126c283611ecf565b92508282019050808211156126da576126d961267d565b5b92915050565b7f4552433732313a2063616c6c6572206973206e6f7420746f6b656e206f776e6560008201527f72206f7220617070726f76656400000000000000000000000000000000000000602082015250565b600061273c602d83611e28565b9150612747826126e0565b604082019050919050565b6000602082019050818103600083015261276b8161272f565b9050919050565b600081905092915050565b600061278882611e1d565b6127928185612772565b93506127a2818560208601611e39565b80840191505092915050565b60006127ba828461277d565b915081905092915050565b60006127d1828561277d565b91506127dd828461277d565b91508190509392505050565b7f4552433732313a20696e76616c696420746f6b656e2049440000000000000000600082015250565b600061281f601883611e28565b915061282a826127e9565b602082019050919050565b6000602082019050818103600083015261284e81612812565b9050919050565b7f4552433732313a2061646472657373207a65726f206973206e6f74206120766160008201527f6c6964206f776e65720000000000000000000000000000000000000000000000602082015250565b60006128b1602983611e28565b91506128bc82612855565b604082019050919050565b600060208201905081810360008301526128e0816128a4565b9050919050565b600069ffffffffffffffffffff82169050919050565b612906816128e7565b811461291157600080fd5b50565b600081519050612923816128fd565b92915050565b60008151905061293881612004565b92915050565b60008151905061294d81611ed9565b92915050565b600080600080600060a0868803121561296f5761296e611d58565b5b600061297d88828901612914565b955050602061298e88828901612929565b945050604061299f8882890161293e565b93505060606129b08882890161293e565b92505060806129c188828901612914565b9150509295509295909350565b7f7b226e616d65223a220000000000000000000000000000000000000000000000600082015250565b6000612a04600983612772565b9150612a0f826129ce565b600982019050919050565b7f222c20226465736372697074696f6e223a22416e204e4654207468617420636860008201527f616e676573206261736564206f6e2074686520436861696e6c696e6b2046656560208201527f64222c2000000000000000000000000000000000000000000000000000000000604082015250565b6000612a9c604483612772565b9150612aa782612a1a565b604482019050919050565b7f2261747472696275746573223a205b7b2274726169745f74797065223a20226360008201527f6f6f6c6e657373222c202276616c7565223a203130307d5d2c2022696d61676560208201527f223a220000000000000000000000000000000000000000000000000000000000604082015250565b6000612b34604383612772565b9150612b3f82612ab2565b604382019050919050565b7f227d000000000000000000000000000000000000000000000000000000000000600082015250565b6000612b80600283612772565b9150612b8b82612b4a565b600282019050919050565b6000612ba1826129f7565b9150612bad828561277d565b9150612bb882612a8f565b9150612bc382612b27565b9150612bcf828461277d565b9150612bda82612b73565b91508190509392505050565b7f4e487b7100000000000000000000000000000000000000000000000000000000600052601260045260246000fd5b6000612c2082611ecf565b9150612c2b83611ecf565b925082612c3b57612c3a612be6565b5b828204905092915050565b6000612c5182611ecf565b9150612c5c83611ecf565b9250828202612c6a81611ecf565b91508282048414831517612c8157612c8061267d565b5b5092915050565b7f4552433732313a207472616e736665722066726f6d20696e636f72726563742060008201527f6f776e6572000000000000000000000000000000000000000000000000000000602082015250565b6000612ce4602583611e28565b9150612cef82612c88565b604082019050919050565b60006020820190508181036000830152612d1381612cd7565b9050919050565b7f4552433732313a207472616e7366657220746f20746865207a65726f2061646460008201527f7265737300000000000000000000000000000000000000000000000000000000602082015250565b6000612d76602483611e28565b9150612d8182612d1a565b604082019050919050565b60006020820190508181036000830152612da581612d69565b9050919050565b7f4552433732313a20617070726f766520746f2063616c6c657200000000000000600082015250565b6000612de2601983611e28565b9150612ded82612dac565b602082019050919050565b60006020820190508181036000830152612e1181612dd5565b9050919050565b7f4552433732313a207472616e7366657220746f206e6f6e20455243373231526560008201527f63656976657220696d706c656d656e7465720000000000000000000000000000602082015250565b6000612e74603283611e28565b9150612e7f82612e18565b604082019050919050565b60006020820190508181036000830152612ea381612e67565b9050919050565b6000612eb582611ecf565b9150612ec083611ecf565b9250828203905081811115612ed857612ed761267d565b5b92915050565b600081519050919050565b600082825260208201905092915050565b6000612f0582612ede565b612f0f8185612ee9565b9350612f1f818560208601611e39565b612f2881611e63565b840191505092915050565b6000608082019050612f486000830187611f64565b612f556020830186611f64565b612f62604083018561222e565b8181036060830152612f748184612efa565b905095945050505050565b600081519050612f8e81611d8e565b92915050565b600060208284031215612faa57612fa9611d58565b5b6000612fb884828501612f7f565b91505092915050565b7f4552433732313a206d696e7420746f20746865207a65726f2061646472657373600082015250565b6000612ff7602083611e28565b915061300282612fc1565b602082019050919050565b6000602082019050818103600083015261302681612fea565b9050919050565b7f4552433732313a20746f6b656e20616c7265616479206d696e74656400000000600082015250565b6000613063601c83611e28565b915061306e8261302d565b602082019050919050565b6000602082019050818103600083015261309281613056565b905091905056fe4142434445464748494a4b4c4d4e4f505152535455565758595a6162636465666768696a6b6c6d6e6f707172737475767778797a303132333435363738392b2fa264697066735822122066392f77c9fc08a360a1a0769b0639c67f9387ccc938718f147e266a42fa6ca064736f6c634300081100334142434445464748494a4b4c4d4e4f505152535455565758595a6162636465666768696a6b6c6d6e6f707172737475767778797a303132333435363738392b2f",
  "linkReferences": {},
  "deployedLinkReferences": {}
}