{
  "_format": "hh-sol-artifact-1",
  "contractName": "DynamicSvgNFT",
  "sourceName": "contracts/DynamicSvgNFT.sol",
  "abi": [
    {
      "inputs": [
        {
          "internalType": "address",
          "name": "priceFeedAddress",
          "type": "address"
        },
        {
          "internalType": "string",
          "name": "highImage",
          "type": "string"
        },
        {
          "internalType": "string",
          "name": "lowImage",
          "type": "string"
        }
      ],
      "stateMutability": "nonpayable",
      "type": "constructor"
    },
    {
      "anonymous": false,
      "inputs": [
        {
          "indexed": true,
          "internalType": "address",
          "name": "owner",
          "type": "address"
        },
        {
          "indexed": true,
          "internalType": "address",
          "name": "approved",
          "type": "address"
        },
        {
          "indexed": true,
          "internalType": "uint256",
          "name": "tokenId",
          "type": "uint256"
        }
      ],
      "name": "Approval",
      "type": "event"
    },
    {
      "anonymous": false,
      "inputs": [
        {
          "indexed": true,
          "internalType": "address",
          "name": "owner",
          "type": "address"
        },
        {
          "indexed": true,
          "internalType": "address",
          "name": "operator",
          "type": "address"
        },
        {
          "indexed": false,
          "internalType": "bool",
          "name": "approved",
          "type": "bool"
        }
      ],
      "name": "ApprovalForAll",
      "type": "event"
    },
    {
      "anonymous": false,
      "inputs": [
        {
          "indexed": true,
          "internalType": "uint256",
          "name": "tokenId",
          "type": "uint256"
        },
        {
          "indexed": false,
          "internalType": "int256",
          "name": "highValue",
          "type": "int256"
        }
      ],
      "name": "MintedNFT",
      "type": "event"
    },
    {
      "anonymous": false,
      "inputs": [
        {
          "indexed": true,
          "internalType": "address",
          "name": "from",
          "type": "address"
        },
        {
          "indexed": true,
          "internalType": "address",
          "name": "to",
          "type": "address"
        },
        {
          "indexed": true,
          "internalType": "uint256",
          "name": "tokenId",
          "type": "uint256"
        }
      ],
      "name": "Transfer",
      "type": "event"
    },
    {
      "inputs": [
        {
          "internalType": "address",
          "name": "to",
          "type": "address"
        },
        {
          "internalType": "uint256",
          "name": "tokenId",
          "type": "uint256"
        }
      ],
      "name": "approve",
      "outputs": [],
      "stateMutability": "nonpayable",
      "type": "function"
    },
    {
      "inputs": [
        {
          "internalType": "address",
          "name": "owner",
          "type": "address"
        }
      ],
      "name": "balanceOf",
      "outputs": [
        {
          "internalType": "uint256",
          "name": "",
          "type": "uint256"
        }
      ],
      "stateMutability": "view",
      "type": "function"
    },
    {
      "inputs": [
        {
          "internalType": "uint256",
          "name": "tokenId",
          "type": "uint256"
        }
      ],
      "name": "getApproved",
      "outputs": [
        {
          "internalType": "address",
          "name": "",
          "type": "address"
        }
      ],
      "stateMutability": "view",
      "type": "function"
    },
    {
      "inputs": [],
      "name": "getTokenCounter",
      "outputs": [
        {
          "internalType": "uint256",
          "name": "",
          "type": "uint256"
        }
      ],
      "stateMutability": "view",
      "type": "function"
    },
    {
      "inputs": [
        {
          "internalType": "address",
          "name": "owner",
          "type": "address"
        },
        {
          "internalType": "address",
          "name": "operator",
          "type": "address"
        }
      ],
      "name": "isApprovedForAll",
      "outputs": [
        {
          "internalType": "bool",
          "name": "",
          "type": "bool"
        }
      ],
      "stateMutability": "view",
      "type": "function"
    },
    {
      "inputs": [
        {
          "internalType": "int256",
          "name": "highValue",
          "type": "int256"
        }
      ],
      "name": "mintNft",
      "outputs": [],
      "stateMutability": "nonpayable",
      "type": "function"
    },
    {
      "inputs": [],
      "name": "name",
      "outputs": [
        {
          "internalType": "string",
          "name": "",
          "type": "string"
        }
      ],
      "stateMutability": "view",
      "type": "function"
    },
    {
      "inputs": [
        {
          "internalType": "uint256",
          "name": "tokenId",
          "type": "uint256"
        }
      ],
      "name": "ownerOf",
      "outputs": [
        {
          "internalType": "address",
          "name": "",
          "type": "address"
        }
      ],
      "stateMutability": "view",
      "type": "function"
    },
    {
      "inputs": [
        {
          "internalType": "uint256",
          "name": "",
          "type": "uint256"
        }
      ],
      "name": "s_tokenIdToHighValue",
      "outputs": [
        {
          "internalType": "int256",
          "name": "",
          "type": "int256"
        }
      ],
      "stateMutability": "view",
      "type": "function"
    },
    {
      "inputs": [
        {
          "internalType": "address",
          "name": "from",
          "type": "address"
        },
        {
          "internalType": "address",
          "name": "to",
          "type": "address"
        },
        {
          "internalType": "uint256",
          "name": "tokenId",
          "type": "uint256"
        }
      ],
      "name": "safeTransferFrom",
      "outputs": [],
      "stateMutability": "nonpayable",
      "type": "function"
    },
    {
      "inputs": [
        {
          "internalType": "address",
          "name": "from",
          "type": "address"
        },
        {
          "internalType": "address",
          "name": "to",
          "type": "address"
        },
        {
          "internalType": "uint256",
          "name": "tokenId",
          "type": "uint256"
        },
        {
          "internalType": "bytes",
          "name": "data",
          "type": "bytes"
        }
      ],
      "name": "safeTransferFrom",
      "outputs": [],
      "stateMutability": "nonpayable",
      "type": "function"
    },
    {
      "inputs": [
        {
          "internalType": "address",
          "name": "operator",
          "type": "address"
        },
        {
          "internalType": "bool",
          "name": "approved",
          "type": "bool"
        }
      ],
      "name": "setApprovalForAll",
      "outputs": [],
      "stateMutability": "nonpayable",
      "type": "function"
    },
    {
      "inputs": [
        {
          "internalType": "bytes4",
          "name": "interfaceId",
          "type": "bytes4"
        }
      ],
      "name": "supportsInterface",
      "outputs": [
        {
          "internalType": "bool",
          "name": "",
          "type": "bool"
        }
      ],
      "stateMutability": "view",
      "type": "function"
    },
    {
      "inputs": [
        {
          "internalType": "string",
          "name": "svg",
          "type": "string"
        }
      ],
      "name": "svgToImageURI",
      "outputs": [
        {
          "internalType": "string",
          "name": "",
          "type": "string"
        }
      ],
      "stateMutability": "pure",
      "type": "function"
    },
    {
      "inputs": [],
      "name": "symbol",
      "outputs": [
        {
          "internalType": "string",
          "name": "",
          "type": "string"
        }
      ],
      "stateMutability": "view",
      "type": "function"
    },
    {
      "inputs": [
        {
          "internalType": "uint256",
          "name": "tokenId",
          "type": "uint256"
        }
      ],
      "name": "tokenURI",
      "outputs": [
        {
          "internalType": "string",
          "name": "",
          "type": "string"
        }
      ],
      "stateMutability": "view",
      "type": "function"
    },
    {
      "inputs": [
        {
          "internalType": "address",
          "name": "from",
          "type": "address"
        },
        {
          "internalType": "address",
          "name": "to",
          "type": "address"
        },
        {
          "internalType": "uint256",
          "name": "tokenId",
          "type": "uint256"
        }
      ],
      "name": "transferFrom",
      "outputs": [],
      "stateMutability": "nonpayable",
      "type": "function"
    }
  ],
  "bytecode": "0x60a06040523480156200001157600080fd5b5060405162003a6738038062003a67833981810160405281019062000037919062000575565b6040518060400160405280600d81526020017f44796e616d69635376674e4654000000000000000000000000000000000000008152506040518060400160405280600381526020017f44534e00000000000000000000000000000000000000000000000000000000008152508160009081620000b491906200085a565b508060019081620000c691906200085a565b5050506000600681905550620000e2826200015260201b60201c565b60079081620000f291906200085a565b5062000104816200015260201b60201c565b600890816200011491906200085a565b508273ffffffffffffffffffffffffffffffffffffffff1660808173ffffffffffffffffffffffffffffffffffffffff168152505050505062000ae0565b606060006200018d836040516020016200016d919062000983565b604051602081830303815290604052620001f060201b62000d641760201c565b90506040518060400160405280601a81526020017f646174613a696d6167652f7376672b786d6c3b6261736536342c00000000000081525081604051602001620001d99291906200099c565b604051602081830303815290604052915050919050565b60606000825103620002145760405180602001604052806000815250905062000378565b600060405180606001604052806040815260200162003a276040913990506000600360028551620002469190620009f3565b62000252919062000a5d565b600462000260919062000a95565b90506000602082620002739190620009f3565b67ffffffffffffffff8111156200028f576200028e62000411565b5b6040519080825280601f01601f191660200182016040528015620002c25781602001600182028036833780820191505090505b509050818152600183018586518101602084015b8183101562000333576003830192508251603f8160121c168501518253600182019150603f81600c1c168501518253600182019150603f8160061c168501518253600182019150603f8116850151825360018201915050620002d6565b60038951066001811462000350576002811462000361576200036c565b613d3d60f01b60028303526200036c565b603d60f81b60018303525b50505050508093505050505b919050565b6000604051905090565b600080fd5b600080fd5b600073ffffffffffffffffffffffffffffffffffffffff82169050919050565b6000620003be8262000391565b9050919050565b620003d081620003b1565b8114620003dc57600080fd5b50565b600081519050620003f081620003c5565b92915050565b600080fd5b600080fd5b6000601f19601f8301169050919050565b7f4e487b7100000000000000000000000000000000000000000000000000000000600052604160045260246000fd5b6200044b8262000400565b810181811067ffffffffffffffff821117156200046d576200046c62000411565b5b80604052505050565b6000620004826200037d565b905062000490828262000440565b919050565b600067ffffffffffffffff821115620004b357620004b262000411565b5b620004be8262000400565b9050602081019050919050565b60005b83811015620004eb578082015181840152602081019050620004ce565b60008484015250505050565b60006200050e620005088462000495565b62000476565b9050828152602081018484840111156200052d576200052c620003fb565b5b6200053a848285620004cb565b509392505050565b600082601f8301126200055a5762000559620003f6565b5b81516200056c848260208601620004f7565b91505092915050565b60008060006060848603121562000591576200059062000387565b5b6000620005a186828701620003df565b935050602084015167ffffffffffffffff811115620005c557620005c46200038c565b5b620005d38682870162000542565b925050604084015167ffffffffffffffff811115620005f757620005f66200038c565b5b620006058682870162000542565b9150509250925092565b600081519050919050565b7f4e487b7100000000000000000000000000000000000000000000000000000000600052602260045260246000fd5b600060028204905060018216806200066257607f821691505b6020821081036200067857620006776200061a565b5b50919050565b60008190508160005260206000209050919050565b60006020601f8301049050919050565b600082821b905092915050565b600060088302620006e27fffffffffffffffffffffffffffffffffffffffffffffffffffffffffffffffff82620006a3565b620006ee8683620006a3565b95508019841693508086168417925050509392505050565b6000819050919050565b6000819050919050565b60006200073b620007356200072f8462000706565b62000710565b62000706565b9050919050565b6000819050919050565b62000757836200071a565b6200076f620007668262000742565b848454620006b0565b825550505050565b600090565b6200078662000777565b620007938184846200074c565b505050565b5b81811015620007bb57620007af6000826200077c565b60018101905062000799565b5050565b601f8211156200080a57620007d4816200067e565b620007df8462000693565b81016020851015620007ef578190505b62000807620007fe8562000693565b83018262000798565b50505b505050565b600082821c905092915050565b60006200082f600019846008026200080f565b1980831691505092915050565b60006200084a83836200081c565b9150826002028217905092915050565b62000865826200060f565b67ffffffffffffffff81111562000881576200088062000411565b5b6200088d825462000649565b6200089a828285620007bf565b600060209050601f831160018114620008d25760008415620008bd578287015190505b620008c985826200083c565b86555062000939565b601f198416620008e2866200067e565b60005b828110156200090c57848901518255600182019150602085019450602081019050620008e5565b868310156200092c578489015162000928601f8916826200081c565b8355505b6001600288020188555050505b505050505050565b600081905092915050565b600062000959826200060f565b62000965818562000941565b935062000977818560208601620004cb565b80840191505092915050565b60006200099182846200094c565b915081905092915050565b6000620009aa82856200094c565b9150620009b882846200094c565b91508190509392505050565b7f4e487b7100000000000000000000000000000000000000000000000000000000600052601160045260246000fd5b600062000a008262000706565b915062000a0d8362000706565b925082820190508082111562000a285762000a27620009c4565b5b92915050565b7f4e487b7100000000000000000000000000000000000000000000000000000000600052601260045260246000fd5b600062000a6a8262000706565b915062000a778362000706565b92508262000a8a5762000a8962000a2e565b5b828204905092915050565b600062000aa28262000706565b915062000aaf8362000706565b925082820262000abf8162000706565b9150828204841483151762000ad95762000ad8620009c4565b5b5092915050565b608051612f2b62000afc6000396000610a8c0152612f2b6000f3fe608060405234801561001057600080fd5b506004361061010b5760003560e01c80636352211e116100a2578063a22cb46511610071578063a22cb465146102ca578063b88d4fde146102e6578063c87b56dd14610302578063e425aded14610332578063e985e9c5146103625761010b565b80636352211e1461022e5780636e02007d1461025e57806370a082311461027c57806395d89b41146102ac5761010b565b80631e930812116100de5780631e930812146101aa57806323b872dd146101c657806330d871c6146101e257806342842e0e146102125761010b565b806301ffc9a71461011057806306fdde0314610140578063081812fc1461015e578063095ea7b31461018e575b600080fd5b61012a60048036038101906101259190611c3b565b610392565b6040516101379190611c83565b60405180910390f35b610148610474565b6040516101559190611d2e565b60405180910390f35b61017860048036038101906101739190611d86565b610506565b6040516101859190611df4565b60405180910390f35b6101a860048036038101906101a39190611e3b565b61054c565b005b6101c460048036038101906101bf9190611eb1565b610663565b005b6101e060048036038101906101db9190611ede565b6106e0565b005b6101fc60048036038101906101f79190612066565b610740565b6040516102099190611d2e565b60405180910390f35b61022c60048036038101906102279190611ede565b6107cd565b005b61024860048036038101906102439190611d86565b6107ed565b6040516102559190611df4565b60405180910390f35b610266610873565b60405161027391906120be565b60405180910390f35b610296600480360381019061029191906120d9565b61087d565b6040516102a391906120be565b60405180910390f35b6102b4610934565b6040516102c19190611d2e565b60405180910390f35b6102e460048036038101906102df9190612132565b6109c6565b005b61030060048036038101906102fb9190612213565b6109dc565b005b61031c60048036038101906103179190611d86565b610a3e565b6040516103299190611d2e565b60405180910390f35b61034c60048036038101906103479190611d86565b610cb8565b60405161035991906122a5565b60405180910390f35b61037c600480360381019061037791906122c0565b610cd0565b6040516103899190611c83565b60405180910390f35b60007f80ac58cd000000000000000000000000000000000000000000000000000000007bffffffffffffffffffffffffffffffffffffffffffffffffffffffff1916827bffffffffffffffffffffffffffffffffffffffffffffffffffffffff1916148061045d57507f5b5e139f000000000000000000000000000000000000000000000000000000007bffffffffffffffffffffffffffffffffffffffffffffffffffffffff1916827bffffffffffffffffffffffffffffffffffffffffffffffffffffffff1916145b8061046d575061046c82610edc565b5b9050919050565b6060600080546104839061232f565b80601f01602080910402602001604051908101604052809291908181526020018280546104af9061232f565b80156104fc5780601f106104d1576101008083540402835291602001916104fc565b820191906000526020600020905b8154815290600101906020018083116104df57829003601f168201915b5050505050905090565b600061051182610f46565b6004600083815260200190815260200160002060009054906101000a900473ffffffffffffffffffffffffffffffffffffffff169050919050565b6000610557826107ed565b90508073ffffffffffffffffffffffffffffffffffffffff168373ffffffffffffffffffffffffffffffffffffffff16036105c7576040517f08c379a00000000000000000000000000000000000000000000000000000000081526004016105be906123d2565b60405180910390fd5b8073ffffffffffffffffffffffffffffffffffffffff166105e6610f91565b73ffffffffffffffffffffffffffffffffffffffff16148061061557506106148161060f610f91565b610cd0565b5b610654576040517f08c379a000000000000000000000000000000000000000000000000000000000815260040161064b90612464565b60405180910390fd5b61065e8383610f99565b505050565b806009600060065481526020019081526020016000208190555060016006600082825461069091906124b3565b925050819055506106a333600654611052565b6006547f4d3c7ced1957a1912fceb7fe377c2a905408de696001f439fe57cc45e42f4f52826040516106d591906122a5565b60405180910390a250565b6106f16106eb610f91565b82611070565b610730576040517f08c379a000000000000000000000000000000000000000000000000000000000815260040161072790612559565b60405180910390fd5b61073b838383611105565b505050565b6060600061076c8360405160200161075891906125b5565b604051602081830303815290604052610d64565b90506040518060400160405280601a81526020017f646174613a696d6167652f7376672b786d6c3b6261736536342c000000000000815250816040516020016107b69291906125cc565b604051602081830303815290604052915050919050565b6107e8838383604051806020016040528060008152506109dc565b505050565b6000806107f9836113fe565b9050600073ffffffffffffffffffffffffffffffffffffffff168173ffffffffffffffffffffffffffffffffffffffff160361086a576040517f08c379a00000000000000000000000000000000000000000000000000000000081526004016108619061263c565b60405180910390fd5b80915050919050565b6000600654905090565b60008073ffffffffffffffffffffffffffffffffffffffff168273ffffffffffffffffffffffffffffffffffffffff16036108ed576040517f08c379a00000000000000000000000000000000000000000000000000000000081526004016108e4906126ce565b60405180910390fd5b600360008373ffffffffffffffffffffffffffffffffffffffff1673ffffffffffffffffffffffffffffffffffffffff168152602001908152602001600020549050919050565b6060600180546109439061232f565b80601f016020809104026020016040519081016040528092919081815260200182805461096f9061232f565b80156109bc5780601f10610991576101008083540402835291602001916109bc565b820191906000526020600020905b81548152906001019060200180831161099f57829003601f168201915b5050505050905090565b6109d86109d1610f91565b838361143b565b5050565b6109ed6109e7610f91565b83611070565b610a2c576040517f08c379a0000000000000000000000000000000000000000000000000000000008152600401610a2390612559565b60405180910390fd5b610a38848484846115a7565b50505050565b6060610a4982611603565b610a88576040517f08c379a0000000000000000000000000000000000000000000000000000000008152600401610a7f9061273a565b60405180910390fd5b60007f000000000000000000000000000000000000000000000000000000000000000073ffffffffffffffffffffffffffffffffffffffff1663feaf968c6040518163ffffffff1660e01b815260040160a060405180830381865afa158015610af5573d6000803e3d6000fd5b505050506040513d601f19601f82011682018060405250810190610b1991906127c6565b505050915050600060088054610b2e9061232f565b80601f0160208091040260200160405190810160405280929190818152602001828054610b5a9061232f565b8015610ba75780601f10610b7c57610100808354040283529160200191610ba7565b820191906000526020600020905b815481529060010190602001808311610b8a57829003601f168201915b5050505050905060096000858152602001908152602001600020548212610c565760078054610bd59061232f565b80601f0160208091040260200160405190810160405280929190818152602001828054610c019061232f565b8015610c4e5780601f10610c2357610100808354040283529160200191610c4e565b820191906000526020600020905b815481529060010190602001808311610c3157829003601f168201915b505050505090505b610c5e611644565b610c8f610c69610474565b83604051602001610c7b9291906129bd565b604051602081830303815290604052610d64565b604051602001610ca09291906125cc565b60405160208183030381529060405292505050919050565b60096020528060005260406000206000915090505481565b6000600560008473ffffffffffffffffffffffffffffffffffffffff1673ffffffffffffffffffffffffffffffffffffffff16815260200190815260200160002060008373ffffffffffffffffffffffffffffffffffffffff1673ffffffffffffffffffffffffffffffffffffffff16815260200190815260200160002060009054906101000a900460ff16905092915050565b60606000825103610d8657604051806020016040528060008152509050610ed7565b6000604051806060016040528060408152602001612eb66040913990506000600360028551610db591906124b3565b610dbf9190612a31565b6004610dcb9190612a62565b90506000602082610ddc91906124b3565b67ffffffffffffffff811115610df557610df4611f3b565b5b6040519080825280601f01601f191660200182016040528015610e275781602001600182028036833780820191505090505b509050818152600183018586518101602084015b81831015610e96576003830192508251603f8160121c168501518253600182019150603f81600c1c168501518253600182019150603f8160061c168501518253600182019150603f8116850151825360018201915050610e3b565b600389510660018114610eb05760028114610ec057610ecb565b613d3d60f01b6002830352610ecb565b603d60f81b60018303525b50505050508093505050505b919050565b60007f01ffc9a7000000000000000000000000000000000000000000000000000000007bffffffffffffffffffffffffffffffffffffffffffffffffffffffff1916827bffffffffffffffffffffffffffffffffffffffffffffffffffffffff1916149050919050565b610f4f81611603565b610f8e576040517f08c379a0000000000000000000000000000000000000000000000000000000008152600401610f859061263c565b60405180910390fd5b50565b600033905090565b816004600083815260200190815260200160002060006101000a81548173ffffffffffffffffffffffffffffffffffffffff021916908373ffffffffffffffffffffffffffffffffffffffff160217905550808273ffffffffffffffffffffffffffffffffffffffff1661100c836107ed565b73ffffffffffffffffffffffffffffffffffffffff167f8c5be1e5ebec7d5bd14f71427d1e84f3dd0314c0f7b2291e5b200ac8c7c3b92560405160405180910390a45050565b61106c828260405180602001604052806000815250611681565b5050565b60008061107c836107ed565b90508073ffffffffffffffffffffffffffffffffffffffff168473ffffffffffffffffffffffffffffffffffffffff1614806110be57506110bd8185610cd0565b5b806110fc57508373ffffffffffffffffffffffffffffffffffffffff166110e484610506565b73ffffffffffffffffffffffffffffffffffffffff16145b91505092915050565b8273ffffffffffffffffffffffffffffffffffffffff16611125826107ed565b73ffffffffffffffffffffffffffffffffffffffff161461117b576040517f08c379a000000000000000000000000000000000000000000000000000000000815260040161117290612b16565b60405180910390fd5b600073ffffffffffffffffffffffffffffffffffffffff168273ffffffffffffffffffffffffffffffffffffffff16036111ea576040517f08c379a00000000000000000000000000000000000000000000000000000000081526004016111e190612ba8565b60405180910390fd5b6111f783838360016116dc565b8273ffffffffffffffffffffffffffffffffffffffff16611217826107ed565b73ffffffffffffffffffffffffffffffffffffffff161461126d576040517f08c379a000000000000000000000000000000000000000000000000000000000815260040161126490612b16565b60405180910390fd5b6004600082815260200190815260200160002060006101000a81549073ffffffffffffffffffffffffffffffffffffffff02191690556001600360008573ffffffffffffffffffffffffffffffffffffffff1673ffffffffffffffffffffffffffffffffffffffff168152602001908152602001600020600082825403925050819055506001600360008473ffffffffffffffffffffffffffffffffffffffff1673ffffffffffffffffffffffffffffffffffffffff16815260200190815260200160002060008282540192505081905550816002600083815260200190815260200160002060006101000a81548173ffffffffffffffffffffffffffffffffffffffff021916908373ffffffffffffffffffffffffffffffffffffffff160217905550808273ffffffffffffffffffffffffffffffffffffffff168473ffffffffffffffffffffffffffffffffffffffff167fddf252ad1be2c89b69c2b068fc378daa952ba7f163c4a11628f55a4df523b3ef60405160405180910390a46113f98383836001611802565b505050565b60006002600083815260200190815260200160002060009054906101000a900473ffffffffffffffffffffffffffffffffffffffff169050919050565b8173ffffffffffffffffffffffffffffffffffffffff168373ffffffffffffffffffffffffffffffffffffffff16036114a9576040517f08c379a00000000000000000000000000000000000000000000000000000000081526004016114a090612c14565b60405180910390fd5b80600560008573ffffffffffffffffffffffffffffffffffffffff1673ffffffffffffffffffffffffffffffffffffffff16815260200190815260200160002060008473ffffffffffffffffffffffffffffffffffffffff1673ffffffffffffffffffffffffffffffffffffffff16815260200190815260200160002060006101000a81548160ff0219169083151502179055508173ffffffffffffffffffffffffffffffffffffffff168373ffffffffffffffffffffffffffffffffffffffff167f17307eab39ab6107e8899845ad3d59bd9653f200f220920489ca2b5937696c318360405161159a9190611c83565b60405180910390a3505050565b6115b2848484611105565b6115be84848484611808565b6115fd576040517f08c379a00000000000000000000000000000000000000000000000000000000081526004016115f490612ca6565b60405180910390fd5b50505050565b60008073ffffffffffffffffffffffffffffffffffffffff16611625836113fe565b73ffffffffffffffffffffffffffffffffffffffff1614159050919050565b60606040518060400160405280601d81526020017f646174613a6170706c69636174696f6e2f6a736f6e3b6261736536342c000000815250905090565b61168b838361198f565b6116986000848484611808565b6116d7576040517f08c379a00000000000000000000000000000000000000000000000000000000081526004016116ce90612ca6565b60405180910390fd5b505050565b60018111156117fc57600073ffffffffffffffffffffffffffffffffffffffff168473ffffffffffffffffffffffffffffffffffffffff16146117705780600360008673ffffffffffffffffffffffffffffffffffffffff1673ffffffffffffffffffffffffffffffffffffffff16815260200190815260200160002060008282546117689190612cc6565b925050819055505b600073ffffffffffffffffffffffffffffffffffffffff168373ffffffffffffffffffffffffffffffffffffffff16146117fb5780600360008573ffffffffffffffffffffffffffffffffffffffff1673ffffffffffffffffffffffffffffffffffffffff16815260200190815260200160002060008282546117f391906124b3565b925050819055505b5b50505050565b50505050565b60006118298473ffffffffffffffffffffffffffffffffffffffff16611bac565b15611982578373ffffffffffffffffffffffffffffffffffffffff1663150b7a02611852610f91565b8786866040518563ffffffff1660e01b81526004016118749493929190612d4f565b6020604051808303816000875af19250505080156118b057506040513d601f19601f820116820180604052508101906118ad9190612db0565b60015b611932573d80600081146118e0576040519150601f19603f3d011682016040523d82523d6000602084013e6118e5565b606091505b50600081510361192a576040517f08c379a000000000000000000000000000000000000000000000000000000000815260040161192190612ca6565b60405180910390fd5b805181602001fd5b63150b7a0260e01b7bffffffffffffffffffffffffffffffffffffffffffffffffffffffff1916817bffffffffffffffffffffffffffffffffffffffffffffffffffffffff191614915050611987565b600190505b949350505050565b600073ffffffffffffffffffffffffffffffffffffffff168273ffffffffffffffffffffffffffffffffffffffff16036119fe576040517f08c379a00000000000000000000000000000000000000000000000000000000081526004016119f590612e29565b60405180910390fd5b611a0781611603565b15611a47576040517f08c379a0000000000000000000000000000000000000000000000000000000008152600401611a3e90612e95565b60405180910390fd5b611a556000838360016116dc565b611a5e81611603565b15611a9e576040517f08c379a0000000000000000000000000000000000000000000000000000000008152600401611a9590612e95565b60405180910390fd5b6001600360008473ffffffffffffffffffffffffffffffffffffffff1673ffffffffffffffffffffffffffffffffffffffff16815260200190815260200160002060008282540192505081905550816002600083815260200190815260200160002060006101000a81548173ffffffffffffffffffffffffffffffffffffffff021916908373ffffffffffffffffffffffffffffffffffffffff160217905550808273ffffffffffffffffffffffffffffffffffffffff16600073ffffffffffffffffffffffffffffffffffffffff167fddf252ad1be2c89b69c2b068fc378daa952ba7f163c4a11628f55a4df523b3ef60405160405180910390a4611ba8600083836001611802565b5050565b6000808273ffffffffffffffffffffffffffffffffffffffff163b119050919050565b6000604051905090565b600080fd5b600080fd5b60007fffffffff0000000000000000000000000000000000000000000000000000000082169050919050565b611c1881611be3565b8114611c2357600080fd5b50565b600081359050611c3581611c0f565b92915050565b600060208284031215611c5157611c50611bd9565b5b6000611c5f84828501611c26565b91505092915050565b60008115159050919050565b611c7d81611c68565b82525050565b6000602082019050611c986000830184611c74565b92915050565b600081519050919050565b600082825260208201905092915050565b60005b83811015611cd8578082015181840152602081019050611cbd565b60008484015250505050565b6000601f19601f8301169050919050565b6000611d0082611c9e565b611d0a8185611ca9565b9350611d1a818560208601611cba565b611d2381611ce4565b840191505092915050565b60006020820190508181036000830152611d488184611cf5565b905092915050565b6000819050919050565b611d6381611d50565b8114611d6e57600080fd5b50565b600081359050611d8081611d5a565b92915050565b600060208284031215611d9c57611d9b611bd9565b5b6000611daa84828501611d71565b91505092915050565b600073ffffffffffffffffffffffffffffffffffffffff82169050919050565b6000611dde82611db3565b9050919050565b611dee81611dd3565b82525050565b6000602082019050611e096000830184611de5565b92915050565b611e1881611dd3565b8114611e2357600080fd5b50565b600081359050611e3581611e0f565b92915050565b60008060408385031215611e5257611e51611bd9565b5b6000611e6085828601611e26565b9250506020611e7185828601611d71565b9150509250929050565b6000819050919050565b611e8e81611e7b565b8114611e9957600080fd5b50565b600081359050611eab81611e85565b92915050565b600060208284031215611ec757611ec6611bd9565b5b6000611ed584828501611e9c565b91505092915050565b600080600060608486031215611ef757611ef6611bd9565b5b6000611f0586828701611e26565b9350506020611f1686828701611e26565b9250506040611f2786828701611d71565b9150509250925092565b600080fd5b600080fd5b7f4e487b7100000000000000000000000000000000000000000000000000000000600052604160045260246000fd5b611f7382611ce4565b810181811067ffffffffffffffff82111715611f9257611f91611f3b565b5b80604052505050565b6000611fa5611bcf565b9050611fb18282611f6a565b919050565b600067ffffffffffffffff821115611fd157611fd0611f3b565b5b611fda82611ce4565b9050602081019050919050565b82818337600083830152505050565b600061200961200484611fb6565b611f9b565b90508281526020810184848401111561202557612024611f36565b5b612030848285611fe7565b509392505050565b600082601f83011261204d5761204c611f31565b5b813561205d848260208601611ff6565b91505092915050565b60006020828403121561207c5761207b611bd9565b5b600082013567ffffffffffffffff81111561209a57612099611bde565b5b6120a684828501612038565b91505092915050565b6120b881611d50565b82525050565b60006020820190506120d360008301846120af565b92915050565b6000602082840312156120ef576120ee611bd9565b5b60006120fd84828501611e26565b91505092915050565b61210f81611c68565b811461211a57600080fd5b50565b60008135905061212c81612106565b92915050565b6000806040838503121561214957612148611bd9565b5b600061215785828601611e26565b92505060206121688582860161211d565b9150509250929050565b600067ffffffffffffffff82111561218d5761218c611f3b565b5b61219682611ce4565b9050602081019050919050565b60006121b66121b184612172565b611f9b565b9050828152602081018484840111156121d2576121d1611f36565b5b6121dd848285611fe7565b509392505050565b600082601f8301126121fa576121f9611f31565b5b813561220a8482602086016121a3565b91505092915050565b6000806000806080858703121561222d5761222c611bd9565b5b600061223b87828801611e26565b945050602061224c87828801611e26565b935050604061225d87828801611d71565b925050606085013567ffffffffffffffff81111561227e5761227d611bde565b5b61228a878288016121e5565b91505092959194509250565b61229f81611e7b565b82525050565b60006020820190506122ba6000830184612296565b92915050565b600080604083850312156122d7576122d6611bd9565b5b60006122e585828601611e26565b92505060206122f685828601611e26565b9150509250929050565b7f4e487b7100000000000000000000000000000000000000000000000000000000600052602260045260246000fd5b6000600282049050600182168061234757607f821691505b60208210810361235a57612359612300565b5b50919050565b7f4552433732313a20617070726f76616c20746f2063757272656e74206f776e6560008201527f7200000000000000000000000000000000000000000000000000000000000000602082015250565b60006123bc602183611ca9565b91506123c782612360565b604082019050919050565b600060208201905081810360008301526123eb816123af565b9050919050565b7f4552433732313a20617070726f76652063616c6c6572206973206e6f7420746f60008201527f6b656e206f776e6572206f7220617070726f76656420666f7220616c6c000000602082015250565b600061244e603d83611ca9565b9150612459826123f2565b604082019050919050565b6000602082019050818103600083015261247d81612441565b9050919050565b7f4e487b7100000000000000000000000000000000000000000000000000000000600052601160045260246000fd5b60006124be82611d50565b91506124c983611d50565b92508282019050808211156124e1576124e0612484565b5b92915050565b7f4552433732313a2063616c6c6572206973206e6f7420746f6b656e206f776e6560008201527f72206f7220617070726f76656400000000000000000000000000000000000000602082015250565b6000612543602d83611ca9565b915061254e826124e7565b604082019050919050565b6000602082019050818103600083015261257281612536565b9050919050565b600081905092915050565b600061258f82611c9e565b6125998185612579565b93506125a9818560208601611cba565b80840191505092915050565b60006125c18284612584565b915081905092915050565b60006125d88285612584565b91506125e48284612584565b91508190509392505050565b7f4552433732313a20696e76616c696420746f6b656e2049440000000000000000600082015250565b6000612626601883611ca9565b9150612631826125f0565b602082019050919050565b6000602082019050818103600083015261265581612619565b9050919050565b7f4552433732313a2061646472657373207a65726f206973206e6f74206120766160008201527f6c6964206f776e65720000000000000000000000000000000000000000000000602082015250565b60006126b8602983611ca9565b91506126c38261265c565b604082019050919050565b600060208201905081810360008301526126e7816126ab565b9050919050565b7f436865636b20666f72206e6f6e6578697374656e7420746f6b656e4964730000600082015250565b6000612724601e83611ca9565b915061272f826126ee565b602082019050919050565b6000602082019050818103600083015261275381612717565b9050919050565b600069ffffffffffffffffffff82169050919050565b6127798161275a565b811461278457600080fd5b50565b60008151905061279681612770565b92915050565b6000815190506127ab81611e85565b92915050565b6000815190506127c081611d5a565b92915050565b600080600080600060a086880312156127e2576127e1611bd9565b5b60006127f088828901612787565b95505060206128018882890161279c565b9450506040612812888289016127b1565b9350506060612823888289016127b1565b925050608061283488828901612787565b9150509295509295909350565b7f7b226e616d65223a220000000000000000000000000000000000000000000000600082015250565b6000612877600983612579565b915061288282612841565b600982019050919050565b7f222c20226465736372697074696f6e223a2022416e204e46542074686174206360008201527f68616e676573206261736564206f6e2074686520436861696e6c696e6b20466560208201527f6564222c202261747472696275746573223a205b7b2274726169745f7479706560408201527f223a2022636f6f6c6e657373222c202276616c7565223a203130307d5d2c202260608201527f696d616765223a20220000000000000000000000000000000000000000000000608082015250565b600061295b608983612579565b91506129668261288d565b608982019050919050565b7f227d000000000000000000000000000000000000000000000000000000000000600082015250565b60006129a7600283612579565b91506129b282612971565b600282019050919050565b60006129c88261286a565b91506129d48285612584565b91506129df8261294e565b91506129eb8284612584565b91506129f68261299a565b91508190509392505050565b7f4e487b7100000000000000000000000000000000000000000000000000000000600052601260045260246000fd5b6000612a3c82611d50565b9150612a4783611d50565b925082612a5757612a56612a02565b5b828204905092915050565b6000612a6d82611d50565b9150612a7883611d50565b9250828202612a8681611d50565b91508282048414831517612a9d57612a9c612484565b5b5092915050565b7f4552433732313a207472616e736665722066726f6d20696e636f72726563742060008201527f6f776e6572000000000000000000000000000000000000000000000000000000602082015250565b6000612b00602583611ca9565b9150612b0b82612aa4565b604082019050919050565b60006020820190508181036000830152612b2f81612af3565b9050919050565b7f4552433732313a207472616e7366657220746f20746865207a65726f2061646460008201527f7265737300000000000000000000000000000000000000000000000000000000602082015250565b6000612b92602483611ca9565b9150612b9d82612b36565b604082019050919050565b60006020820190508181036000830152612bc181612b85565b9050919050565b7f4552433732313a20617070726f766520746f2063616c6c657200000000000000600082015250565b6000612bfe601983611ca9565b9150612c0982612bc8565b602082019050919050565b60006020820190508181036000830152612c2d81612bf1565b9050919050565b7f4552433732313a207472616e7366657220746f206e6f6e20455243373231526560008201527f63656976657220696d706c656d656e7465720000000000000000000000000000602082015250565b6000612c90603283611ca9565b9150612c9b82612c34565b604082019050919050565b60006020820190508181036000830152612cbf81612c83565b9050919050565b6000612cd182611d50565b9150612cdc83611d50565b9250828203905081811115612cf457612cf3612484565b5b92915050565b600081519050919050565b600082825260208201905092915050565b6000612d2182612cfa565b612d2b8185612d05565b9350612d3b818560208601611cba565b612d4481611ce4565b840191505092915050565b6000608082019050612d646000830187611de5565b612d716020830186611de5565b612d7e60408301856120af565b8181036060830152612d908184612d16565b905095945050505050565b600081519050612daa81611c0f565b92915050565b600060208284031215612dc657612dc5611bd9565b5b6000612dd484828501612d9b565b91505092915050565b7f4552433732313a206d696e7420746f20746865207a65726f2061646472657373600082015250565b6000612e13602083611ca9565b9150612e1e82612ddd565b602082019050919050565b60006020820190508181036000830152612e4281612e06565b9050919050565b7f4552433732313a20746f6b656e20616c7265616479206d696e74656400000000600082015250565b6000612e7f601c83611ca9565b9150612e8a82612e49565b602082019050919050565b60006020820190508181036000830152612eae81612e72565b905091905056fe4142434445464748494a4b4c4d4e4f505152535455565758595a6162636465666768696a6b6c6d6e6f707172737475767778797a303132333435363738392b2fa2646970667358221220f09094f89e661afde0e142a66097db4546dc589bf6410389abb59a0b47c4878364736f6c634300081100334142434445464748494a4b4c4d4e4f505152535455565758595a6162636465666768696a6b6c6d6e6f707172737475767778797a303132333435363738392b2f",
  "linkReferences": {},
  "deployedLinkReferences": {}
}