{
  "_format": "hh-sol-artifact-1",
  "contractName": "RandomIpfsNft",
  "sourceName": "contracts/RandomIpfsNft.sol",
  "abi": [
    {
      "inputs": [
        {
          "internalType": "address",
          "name": "vrfCoordinatorV2",
          "type": "address"
        },
        {
          "internalType": "bytes32",
          "name": "gaslane",
          "type": "bytes32"
        },
        {
          "internalType": "uint64",
          "name": "subscriptionId",
          "type": "uint64"
        },
        {
          "internalType": "uint32",
          "name": "callbackGasLimit",
          "type": "uint32"
        },
        {
          "internalType": "uint256",
          "name": "interval",
          "type": "uint256"
        },
        {
          "internalType": "string[3]",
          "name": "tokenUris",
          "type": "string[3]"
        },
        {
          "internalType": "uint256",
          "name": "mintFee",
          "type": "uint256"
        }
      ],
      "stateMutability": "nonpayable",
      "type": "constructor"
    },
    {
      "inputs": [
        {
          "internalType": "address",
          "name": "have",
          "type": "address"
        },
        {
          "internalType": "address",
          "name": "want",
          "type": "address"
        }
      ],
      "name": "OnlyCoordinatorCanFulfill",
      "type": "error"
    },
    {
      "inputs": [],
      "name": "RandomIpfsNft__NotEnoughETH",
      "type": "error"
    },
    {
      "inputs": [],
      "name": "RandomIpfsNft__RangeOutOfBounds",
      "type": "error"
    },
    {
      "inputs": [],
      "name": "RandomIpfsNft__TransferFailed",
      "type": "error"
    },
    {
      "anonymous": false,
      "inputs": [
        {
          "indexed": true,
          "internalType": "address",
          "name": "owner",
          "type": "address"
        },
        {
          "indexed": true,
          "internalType": "address",
          "name": "approved",
          "type": "address"
        },
        {
          "indexed": true,
          "internalType": "uint256",
          "name": "tokenId",
          "type": "uint256"
        }
      ],
      "name": "Approval",
      "type": "event"
    },
    {
      "anonymous": false,
      "inputs": [
        {
          "indexed": true,
          "internalType": "address",
          "name": "owner",
          "type": "address"
        },
        {
          "indexed": true,
          "internalType": "address",
          "name": "operator",
          "type": "address"
        },
        {
          "indexed": false,
          "internalType": "bool",
          "name": "approved",
          "type": "bool"
        }
      ],
      "name": "ApprovalForAll",
      "type": "event"
    },
    {
      "anonymous": false,
      "inputs": [
        {
          "indexed": false,
          "internalType": "enum RandomIpfsNft.Breed",
          "name": "dogBreed",
          "type": "uint8"
        },
        {
          "indexed": false,
          "internalType": "address",
          "name": "minter",
          "type": "address"
        }
      ],
      "name": "NftMinted",
      "type": "event"
    },
    {
      "anonymous": false,
      "inputs": [
        {
          "indexed": true,
          "internalType": "uint256",
          "name": "requestId",
          "type": "uint256"
        },
        {
          "indexed": false,
          "internalType": "address",
          "name": "requester",
          "type": "address"
        }
      ],
      "name": "NftRequested",
      "type": "event"
    },
    {
      "anonymous": false,
      "inputs": [
        {
          "indexed": true,
          "internalType": "address",
          "name": "previousOwner",
          "type": "address"
        },
        {
          "indexed": true,
          "internalType": "address",
          "name": "newOwner",
          "type": "address"
        }
      ],
      "name": "OwnershipTransferred",
      "type": "event"
    },
    {
      "anonymous": false,
      "inputs": [
        {
          "indexed": true,
          "internalType": "address",
          "name": "from",
          "type": "address"
        },
        {
          "indexed": true,
          "internalType": "address",
          "name": "to",
          "type": "address"
        },
        {
          "indexed": true,
          "internalType": "uint256",
          "name": "tokenId",
          "type": "uint256"
        }
      ],
      "name": "Transfer",
      "type": "event"
    },
    {
      "inputs": [
        {
          "internalType": "address",
          "name": "to",
          "type": "address"
        },
        {
          "internalType": "uint256",
          "name": "tokenId",
          "type": "uint256"
        }
      ],
      "name": "approve",
      "outputs": [],
      "stateMutability": "nonpayable",
      "type": "function"
    },
    {
      "inputs": [
        {
          "internalType": "address",
          "name": "owner",
          "type": "address"
        }
      ],
      "name": "balanceOf",
      "outputs": [
        {
          "internalType": "uint256",
          "name": "",
          "type": "uint256"
        }
      ],
      "stateMutability": "view",
      "type": "function"
    },
    {
      "inputs": [
        {
          "internalType": "uint256",
          "name": "tokenId",
          "type": "uint256"
        }
      ],
      "name": "getApproved",
      "outputs": [
        {
          "internalType": "address",
          "name": "",
          "type": "address"
        }
      ],
      "stateMutability": "view",
      "type": "function"
    },
    {
      "inputs": [
        {
          "internalType": "uint256",
          "name": "moddedRng",
          "type": "uint256"
        }
      ],
      "name": "getBreedFromModdedRng",
      "outputs": [
        {
          "internalType": "enum RandomIpfsNft.Breed",
          "name": "",
          "type": "uint8"
        }
      ],
      "stateMutability": "pure",
      "type": "function"
    },
    {
      "inputs": [],
      "name": "getChanceArray",
      "outputs": [
        {
          "internalType": "uint256[3]",
          "name": "",
          "type": "uint256[3]"
        }
      ],
      "stateMutability": "pure",
      "type": "function"
    },
    {
      "inputs": [
        {
          "internalType": "uint256",
          "name": "index",
          "type": "uint256"
        }
      ],
      "name": "getDogTokenUri",
      "outputs": [
        {
          "internalType": "string",
          "name": "",
          "type": "string"
        }
      ],
      "stateMutability": "view",
      "type": "function"
    },
    {
      "inputs": [],
      "name": "getMintFee",
      "outputs": [
        {
          "internalType": "uint256",
          "name": "",
          "type": "uint256"
        }
      ],
      "stateMutability": "view",
      "type": "function"
    },
    {
      "inputs": [],
      "name": "getTokenCounter",
      "outputs": [
        {
          "internalType": "uint256",
          "name": "",
          "type": "uint256"
        }
      ],
      "stateMutability": "view",
      "type": "function"
    },
    {
      "inputs": [
        {
          "internalType": "address",
          "name": "owner",
          "type": "address"
        },
        {
          "internalType": "address",
          "name": "operator",
          "type": "address"
        }
      ],
      "name": "isApprovedForAll",
      "outputs": [
        {
          "internalType": "bool",
          "name": "",
          "type": "bool"
        }
      ],
      "stateMutability": "view",
      "type": "function"
    },
    {
      "inputs": [],
      "name": "name",
      "outputs": [
        {
          "internalType": "string",
          "name": "",
          "type": "string"
        }
      ],
      "stateMutability": "view",
      "type": "function"
    },
    {
      "inputs": [],
      "name": "owner",
      "outputs": [
        {
          "internalType": "address",
          "name": "",
          "type": "address"
        }
      ],
      "stateMutability": "view",
      "type": "function"
    },
    {
      "inputs": [
        {
          "internalType": "uint256",
          "name": "tokenId",
          "type": "uint256"
        }
      ],
      "name": "ownerOf",
      "outputs": [
        {
          "internalType": "address",
          "name": "",
          "type": "address"
        }
      ],
      "stateMutability": "view",
      "type": "function"
    },
    {
      "inputs": [
        {
          "internalType": "uint256",
          "name": "requestId",
          "type": "uint256"
        },
        {
          "internalType": "uint256[]",
          "name": "randomWords",
          "type": "uint256[]"
        }
      ],
      "name": "rawFulfillRandomWords",
      "outputs": [],
      "stateMutability": "nonpayable",
      "type": "function"
    },
    {
      "inputs": [],
      "name": "renounceOwnership",
      "outputs": [],
      "stateMutability": "nonpayable",
      "type": "function"
    },
    {
      "inputs": [],
      "name": "requestNft",
      "outputs": [
        {
          "internalType": "uint256",
          "name": "requestId",
          "type": "uint256"
        }
      ],
      "stateMutability": "payable",
      "type": "function"
    },
    {
      "inputs": [
        {
          "internalType": "uint256",
          "name": "",
          "type": "uint256"
        }
      ],
      "name": "s_requestIdToSender",
      "outputs": [
        {
          "internalType": "address",
          "name": "",
          "type": "address"
        }
      ],
      "stateMutability": "view",
      "type": "function"
    },
    {
      "inputs": [],
      "name": "s_tokenCounter",
      "outputs": [
        {
          "internalType": "uint256",
          "name": "",
          "type": "uint256"
        }
      ],
      "stateMutability": "view",
      "type": "function"
    },
    {
      "inputs": [
        {
          "internalType": "address",
          "name": "from",
          "type": "address"
        },
        {
          "internalType": "address",
          "name": "to",
          "type": "address"
        },
        {
          "internalType": "uint256",
          "name": "tokenId",
          "type": "uint256"
        }
      ],
      "name": "safeTransferFrom",
      "outputs": [],
      "stateMutability": "nonpayable",
      "type": "function"
    },
    {
      "inputs": [
        {
          "internalType": "address",
          "name": "from",
          "type": "address"
        },
        {
          "internalType": "address",
          "name": "to",
          "type": "address"
        },
        {
          "internalType": "uint256",
          "name": "tokenId",
          "type": "uint256"
        },
        {
          "internalType": "bytes",
          "name": "data",
          "type": "bytes"
        }
      ],
      "name": "safeTransferFrom",
      "outputs": [],
      "stateMutability": "nonpayable",
      "type": "function"
    },
    {
      "inputs": [
        {
          "internalType": "address",
          "name": "operator",
          "type": "address"
        },
        {
          "internalType": "bool",
          "name": "approved",
          "type": "bool"
        }
      ],
      "name": "setApprovalForAll",
      "outputs": [],
      "stateMutability": "nonpayable",
      "type": "function"
    },
    {
      "inputs": [
        {
          "internalType": "bytes4",
          "name": "interfaceId",
          "type": "bytes4"
        }
      ],
      "name": "supportsInterface",
      "outputs": [
        {
          "internalType": "bool",
          "name": "",
          "type": "bool"
        }
      ],
      "stateMutability": "view",
      "type": "function"
    },
    {
      "inputs": [],
      "name": "symbol",
      "outputs": [
        {
          "internalType": "string",
          "name": "",
          "type": "string"
        }
      ],
      "stateMutability": "view",
      "type": "function"
    },
    {
      "inputs": [
        {
          "internalType": "uint256",
          "name": "tokenId",
          "type": "uint256"
        }
      ],
      "name": "tokenURI",
      "outputs": [
        {
          "internalType": "string",
          "name": "",
          "type": "string"
        }
      ],
      "stateMutability": "view",
      "type": "function"
    },
    {
      "inputs": [
        {
          "internalType": "address",
          "name": "from",
          "type": "address"
        },
        {
          "internalType": "address",
          "name": "to",
          "type": "address"
        },
        {
          "internalType": "uint256",
          "name": "tokenId",
          "type": "uint256"
        }
      ],
      "name": "transferFrom",
      "outputs": [],
      "stateMutability": "nonpayable",
      "type": "function"
    },
    {
      "inputs": [
        {
          "internalType": "address",
          "name": "newOwner",
          "type": "address"
        }
      ],
      "name": "transferOwnership",
      "outputs": [],
      "stateMutability": "nonpayable",
      "type": "function"
    },
    {
      "inputs": [],
      "name": "withdraw",
      "outputs": [],
      "stateMutability": "nonpayable",
      "type": "function"
    }
  ],
  "bytecode": "0x6101606040523480156200001257600080fd5b506040516200493638038062004936833981810160405281019062000038919062000761565b6040518060400160405280600f81526020017f52616e646f6d2049504653204e465400000000000000000000000000000000008152506040518060400160405280600381526020017f52494e0000000000000000000000000000000000000000000000000000000000815250888073ffffffffffffffffffffffffffffffffffffffff1660808173ffffffffffffffffffffffffffffffffffffffff1681525050508160009081620000eb919062000a74565b508060019081620000fd919062000a74565b5050506200012062000114620001c860201b60201c565b620001d060201b60201c565b8673ffffffffffffffffffffffffffffffffffffffff1660a08173ffffffffffffffffffffffffffffffffffffffff16815250508561010081815250508467ffffffffffffffff1660c08167ffffffffffffffff16815250508363ffffffff1660e08163ffffffff168152505082610120818152505081600a906003620001a992919062000296565b5080610140818152505060006009819055505050505050505062000b5b565b600033905090565b6000600760009054906101000a900473ffffffffffffffffffffffffffffffffffffffff16905081600760006101000a81548173ffffffffffffffffffffffffffffffffffffffff021916908373ffffffffffffffffffffffffffffffffffffffff1602179055508173ffffffffffffffffffffffffffffffffffffffff168173ffffffffffffffffffffffffffffffffffffffff167f8be0079c531659141344cd1fd0a4f28419497f9722a3daafe3b4186f6b6457e060405160405180910390a35050565b828054828255906000526020600020908101928215620002e3579160200282015b82811115620002e2578251829081620002d1919062000a74565b5091602001919060010190620002b7565b5b509050620002f29190620002f6565b5090565b5b808211156200031a57600081816200031091906200031e565b50600101620002f7565b5090565b5080546200032c906200086d565b6000825580601f1062000340575062000361565b601f01602090049060005260206000209081019062000360919062000364565b5b50565b5b808211156200037f57600081600090555060010162000365565b5090565b6000604051905090565b600080fd5b600080fd5b600073ffffffffffffffffffffffffffffffffffffffff82169050919050565b6000620003c48262000397565b9050919050565b620003d681620003b7565b8114620003e257600080fd5b50565b600081519050620003f681620003cb565b92915050565b6000819050919050565b6200041181620003fc565b81146200041d57600080fd5b50565b600081519050620004318162000406565b92915050565b600067ffffffffffffffff82169050919050565b620004568162000437565b81146200046257600080fd5b50565b60008151905062000476816200044b565b92915050565b600063ffffffff82169050919050565b62000497816200047c565b8114620004a357600080fd5b50565b600081519050620004b7816200048c565b92915050565b6000819050919050565b620004d281620004bd565b8114620004de57600080fd5b50565b600081519050620004f281620004c7565b92915050565b600080fd5b6000601f19601f8301169050919050565b7f4e487b7100000000000000000000000000000000000000000000000000000000600052604160045260246000fd5b6200054882620004fd565b810181811067ffffffffffffffff821117156200056a57620005696200050e565b5b80604052505050565b60006200057f62000383565b90506200058d82826200053d565b919050565b600067ffffffffffffffff821115620005b057620005af6200050e565b5b602082029050919050565b600080fd5b600080fd5b600067ffffffffffffffff821115620005e357620005e26200050e565b5b620005ee82620004fd565b9050602081019050919050565b60005b838110156200061b578082015181840152602081019050620005fe565b60008484015250505050565b60006200063e6200063884620005c5565b62000573565b9050828152602081018484840111156200065d576200065c620005c0565b5b6200066a848285620005fb565b509392505050565b600082601f8301126200068a5762000689620004f8565b5b81516200069c84826020860162000627565b91505092915050565b6000620006bc620006b68462000592565b62000573565b90508060208402830185811115620006d957620006d8620005bb565b5b835b818110156200072757805167ffffffffffffffff811115620007025762000701620004f8565b5b80860162000711898262000672565b85526020850194505050602081019050620006db565b5050509392505050565b600082601f830112620007495762000748620004f8565b5b600362000758848285620006a5565b91505092915050565b600080600080600080600060e0888a0312156200078357620007826200038d565b5b6000620007938a828b01620003e5565b9750506020620007a68a828b0162000420565b9650506040620007b98a828b0162000465565b9550506060620007cc8a828b01620004a6565b9450506080620007df8a828b01620004e1565b93505060a088015167ffffffffffffffff81111562000803576200080262000392565b5b620008118a828b0162000731565b92505060c0620008248a828b01620004e1565b91505092959891949750929550565b600081519050919050565b7f4e487b7100000000000000000000000000000000000000000000000000000000600052602260045260246000fd5b600060028204905060018216806200088657607f821691505b6020821081036200089c576200089b6200083e565b5b50919050565b60008190508160005260206000209050919050565b60006020601f8301049050919050565b600082821b905092915050565b600060088302620009067fffffffffffffffffffffffffffffffffffffffffffffffffffffffffffffffff82620008c7565b620009128683620008c7565b95508019841693508086168417925050509392505050565b6000819050919050565b6000620009556200094f6200094984620004bd565b6200092a565b620004bd565b9050919050565b6000819050919050565b620009718362000934565b6200098962000980826200095c565b848454620008d4565b825550505050565b600090565b620009a062000991565b620009ad81848462000966565b505050565b5b81811015620009d557620009c960008262000996565b600181019050620009b3565b5050565b601f82111562000a2457620009ee81620008a2565b620009f984620008b7565b8101602085101562000a09578190505b62000a2162000a1885620008b7565b830182620009b2565b50505b505050565b600082821c905092915050565b600062000a496000198460080262000a29565b1980831691505092915050565b600062000a64838362000a36565b9150826002028217905092915050565b62000a7f8262000833565b67ffffffffffffffff81111562000a9b5762000a9a6200050e565b5b62000aa782546200086d565b62000ab4828285620009d9565b600060209050601f83116001811462000aec576000841562000ad7578287015190505b62000ae3858262000a56565b86555062000b53565b601f19841662000afc86620008a2565b60005b8281101562000b265784890151825560018201915060208501945060208101905062000aff565b8683101562000b46578489015162000b42601f89168262000a36565b8355505b6001600288020188555050505b505050505050565b60805160a05160c05160e051610100516101205161014051613d7562000bc160003960008181610d480152610f570152600050506000610fed015260006110310152600061100e01526000610fb101526000818161091c01526109700152613d756000f3fe6080604052600436106101815760003560e01c8063715018a6116100d1578063a36f573b1161008a578063b88d4fde11610064578063b88d4fde14610577578063c87b56dd146105a0578063e985e9c5146105dd578063f2fde38b1461061a57610181565b8063a36f573b146104df578063a51cccf31461051c578063aa1524911461055957610181565b8063715018a6146103e1578063741a63fa146103f85780637a5caab3146104355780638da5cb5b1461046057806395d89b411461048b578063a22cb465146104b657610181565b806323b872dd1161013e5780635dacf5f4116101185780635dacf5f4146103115780636352211e1461033c5780636e02007d1461037957806370a08231146103a457610181565b806323b872dd146102a85780633ccfd60b146102d157806342842e0e146102e857610181565b806301ffc9a71461018657806306fdde03146101c3578063081812fc146101ee578063095ea7b31461022b5780630b21a83b146102545780631fe543e31461027f575b600080fd5b34801561019257600080fd5b506101ad60048036038101906101a89190612703565b610643565b6040516101ba919061274b565b60405180910390f35b3480156101cf57600080fd5b506101d8610725565b6040516101e591906127f6565b60405180910390f35b3480156101fa57600080fd5b506102156004803603810190610210919061284e565b6107b7565b60405161022291906128bc565b60405180910390f35b34801561023757600080fd5b50610252600480360381019061024d9190612903565b6107fd565b005b34801561026057600080fd5b50610269610914565b6040516102769190612952565b60405180910390f35b34801561028b57600080fd5b506102a660048036038101906102a19190612ab5565b61091a565b005b3480156102b457600080fd5b506102cf60048036038101906102ca9190612b11565b6109da565b005b3480156102dd57600080fd5b506102e6610a3a565b005b3480156102f457600080fd5b5061030f600480360381019061030a9190612b11565b610aee565b005b34801561031d57600080fd5b50610326610b0e565b6040516103339190612c0f565b60405180910390f35b34801561034857600080fd5b50610363600480360381019061035e919061284e565b610b39565b60405161037091906128bc565b60405180910390f35b34801561038557600080fd5b5061038e610bbf565b60405161039b9190612952565b60405180910390f35b3480156103b057600080fd5b506103cb60048036038101906103c69190612c2a565b610bc9565b6040516103d89190612952565b60405180910390f35b3480156103ed57600080fd5b506103f6610c80565b005b34801561040457600080fd5b5061041f600480360381019061041a919061284e565b610c94565b60405161042c91906127f6565b60405180910390f35b34801561044157600080fd5b5061044a610d44565b6040516104579190612952565b60405180910390f35b34801561046c57600080fd5b50610475610d6c565b60405161048291906128bc565b60405180910390f35b34801561049757600080fd5b506104a0610d96565b6040516104ad91906127f6565b60405180910390f35b3480156104c257600080fd5b506104dd60048036038101906104d89190612c83565b610e28565b005b3480156104eb57600080fd5b506105066004803603810190610501919061284e565b610e3e565b60405161051391906128bc565b60405180910390f35b34801561052857600080fd5b50610543600480360381019061053e919061284e565b610e71565b6040516105509190612d3a565b60405180910390f35b610561610f53565b60405161056e9190612952565b60405180910390f35b34801561058357600080fd5b5061059e60048036038101906105999190612e0a565b611144565b005b3480156105ac57600080fd5b506105c760048036038101906105c2919061284e565b6111a6565b6040516105d491906127f6565b60405180910390f35b3480156105e957600080fd5b5061060460048036038101906105ff9190612e8d565b6112b8565b604051610611919061274b565b60405180910390f35b34801561062657600080fd5b50610641600480360381019061063c9190612c2a565b61134c565b005b60007f80ac58cd000000000000000000000000000000000000000000000000000000007bffffffffffffffffffffffffffffffffffffffffffffffffffffffff1916827bffffffffffffffffffffffffffffffffffffffffffffffffffffffff1916148061070e57507f5b5e139f000000000000000000000000000000000000000000000000000000007bffffffffffffffffffffffffffffffffffffffffffffffffffffffff1916827bffffffffffffffffffffffffffffffffffffffffffffffffffffffff1916145b8061071e575061071d826113cf565b5b9050919050565b60606000805461073490612efc565b80601f016020809104026020016040519081016040528092919081815260200182805461076090612efc565b80156107ad5780601f10610782576101008083540402835291602001916107ad565b820191906000526020600020905b81548152906001019060200180831161079057829003601f168201915b5050505050905090565b60006107c282611439565b6004600083815260200190815260200160002060009054906101000a900473ffffffffffffffffffffffffffffffffffffffff169050919050565b600061080882610b39565b90508073ffffffffffffffffffffffffffffffffffffffff168373ffffffffffffffffffffffffffffffffffffffff1603610878576040517f08c379a000000000000000000000000000000000000000000000000000000000815260040161086f90612f9f565b60405180910390fd5b8073ffffffffffffffffffffffffffffffffffffffff16610897611484565b73ffffffffffffffffffffffffffffffffffffffff1614806108c657506108c5816108c0611484565b6112b8565b5b610905576040517f08c379a00000000000000000000000000000000000000000000000000000000081526004016108fc90613031565b60405180910390fd5b61090f838361148c565b505050565b60095481565b7f000000000000000000000000000000000000000000000000000000000000000073ffffffffffffffffffffffffffffffffffffffff163373ffffffffffffffffffffffffffffffffffffffff16146109cc57337f00000000000000000000000000000000000000000000000000000000000000006040517f1cf993f40000000000000000000000000000000000000000000000000000000081526004016109c3929190613051565b60405180910390fd5b6109d68282611545565b5050565b6109eb6109e5611484565b826116e4565b610a2a576040517f08c379a0000000000000000000000000000000000000000000000000000000008152600401610a21906130ec565b60405180910390fd5b610a35838383611779565b505050565b610a42611a72565b600047905060003373ffffffffffffffffffffffffffffffffffffffff1682604051610a6d9061313d565b60006040518083038185875af1925050503d8060008114610aaa576040519150601f19603f3d011682016040523d82523d6000602084013e610aaf565b606091505b5050905080610aea576040517fca7e25b700000000000000000000000000000000000000000000000000000000815260040160405180910390fd5b5050565b610b0983838360405180602001604052806000815250611144565b505050565b610b16612675565b6040518060600160405280600a8152602001601e81526020016064815250905090565b600080610b4583611af0565b9050600073ffffffffffffffffffffffffffffffffffffffff168173ffffffffffffffffffffffffffffffffffffffff1603610bb6576040517f08c379a0000000000000000000000000000000000000000000000000000000008152600401610bad9061319e565b60405180910390fd5b80915050919050565b6000600954905090565b60008073ffffffffffffffffffffffffffffffffffffffff168273ffffffffffffffffffffffffffffffffffffffff1603610c39576040517f08c379a0000000000000000000000000000000000000000000000000000000008152600401610c3090613230565b60405180910390fd5b600360008373ffffffffffffffffffffffffffffffffffffffff1673ffffffffffffffffffffffffffffffffffffffff168152602001908152602001600020549050919050565b610c88611a72565b610c926000611b2d565b565b6060600a8281548110610caa57610ca9613250565b5b906000526020600020018054610cbf90612efc565b80601f0160208091040260200160405190810160405280929190818152602001828054610ceb90612efc565b8015610d385780601f10610d0d57610100808354040283529160200191610d38565b820191906000526020600020905b815481529060010190602001808311610d1b57829003601f168201915b50505050509050919050565b60007f0000000000000000000000000000000000000000000000000000000000000000905090565b6000600760009054906101000a900473ffffffffffffffffffffffffffffffffffffffff16905090565b606060018054610da590612efc565b80601f0160208091040260200160405190810160405280929190818152602001828054610dd190612efc565b8015610e1e5780601f10610df357610100808354040283529160200191610e1e565b820191906000526020600020905b815481529060010190602001808311610e0157829003601f168201915b5050505050905090565b610e3a610e33611484565b8383611bf3565b5050565b60086020528060005260406000206000915054906101000a900473ffffffffffffffffffffffffffffffffffffffff1681565b600080600090506000610e82610b0e565b905060005b6003811015610f1b57828510158015610ec15750818160038110610eae57610ead613250565b5b602002015183610ebe91906132ae565b85105b15610ee357806002811115610ed957610ed8612cc3565b5b9350505050610f4e565b818160038110610ef657610ef5613250565b5b602002015183610f0691906132ae565b92508080610f13906132e2565b915050610e87565b506040517f12806c9d00000000000000000000000000000000000000000000000000000000815260040160405180910390fd5b919050565b60007f0000000000000000000000000000000000000000000000000000000000000000341015610faf576040517f3964ba4b00000000000000000000000000000000000000000000000000000000815260040160405180910390fd5b7f000000000000000000000000000000000000000000000000000000000000000073ffffffffffffffffffffffffffffffffffffffff16635d3b1d307f00000000000000000000000000000000000000000000000000000000000000007f000000000000000000000000000000000000000000000000000000000000000060037f000000000000000000000000000000000000000000000000000000000000000060016040518663ffffffff1660e01b81526004016110729594939291906133a2565b6020604051808303816000875af1158015611091573d6000803e3d6000fd5b505050506040513d601f19601f820116820180604052508101906110b5919061340a565b9050336008600083815260200190815260200160002060006101000a81548173ffffffffffffffffffffffffffffffffffffffff021916908373ffffffffffffffffffffffffffffffffffffffff160217905550807ff873236e6cc0ecc5be1a9a35c95ee5b8d1ac4cc7bfef0cc5060391d6cc98e26b3360405161113991906128bc565b60405180910390a290565b61115561114f611484565b836116e4565b611194576040517f08c379a000000000000000000000000000000000000000000000000000000000815260040161118b906130ec565b60405180910390fd5b6111a084848484611d5f565b50505050565b60606111b182611439565b60006006600084815260200190815260200160002080546111d190612efc565b80601f01602080910402602001604051908101604052809291908181526020018280546111fd90612efc565b801561124a5780601f1061121f5761010080835404028352916020019161124a565b820191906000526020600020905b81548152906001019060200180831161122d57829003601f168201915b50505050509050600061125b611dbb565b905060008151036112705781925050506112b3565b6000825111156112a557808260405160200161128d929190613473565b604051602081830303815290604052925050506112b3565b6112ae84611dd2565b925050505b919050565b6000600560008473ffffffffffffffffffffffffffffffffffffffff1673ffffffffffffffffffffffffffffffffffffffff16815260200190815260200160002060008373ffffffffffffffffffffffffffffffffffffffff1673ffffffffffffffffffffffffffffffffffffffff16815260200190815260200160002060009054906101000a900460ff16905092915050565b611354611a72565b600073ffffffffffffffffffffffffffffffffffffffff168173ffffffffffffffffffffffffffffffffffffffff16036113c3576040517f08c379a00000000000000000000000000000000000000000000000000000000081526004016113ba90613509565b60405180910390fd5b6113cc81611b2d565b50565b60007f01ffc9a7000000000000000000000000000000000000000000000000000000007bffffffffffffffffffffffffffffffffffffffffffffffffffffffff1916827bffffffffffffffffffffffffffffffffffffffffffffffffffffffff1916149050919050565b61144281611e3a565b611481576040517f08c379a00000000000000000000000000000000000000000000000000000000081526004016114789061319e565b60405180910390fd5b50565b600033905090565b816004600083815260200190815260200160002060006101000a81548173ffffffffffffffffffffffffffffffffffffffff021916908373ffffffffffffffffffffffffffffffffffffffff160217905550808273ffffffffffffffffffffffffffffffffffffffff166114ff83610b39565b73ffffffffffffffffffffffffffffffffffffffff167f8c5be1e5ebec7d5bd14f71427d1e84f3dd0314c0f7b2291e5b200ac8c7c3b92560405160405180910390a45050565b60006008600084815260200190815260200160002060009054906101000a900473ffffffffffffffffffffffffffffffffffffffff1690506000600954905060016009600082825461159791906132ae565b9250508190555060006064846000815181106115b6576115b5613250565b5b60200260200101516115c89190613558565b905060006115d582610e71565b90506115e18484611e7b565b6116a383600a8360028111156115fa576115f9612cc3565b5b8154811061160b5761160a613250565b5b90600052602060002001805461162090612efc565b80601f016020809104026020016040519081016040528092919081815260200182805461164c90612efc565b80156116995780601f1061166e57610100808354040283529160200191611699565b820191906000526020600020905b81548152906001019060200180831161167c57829003601f168201915b5050505050611e99565b7f8a269f26b688e110e9cbd887d163dab35cae678fa353a0292de532c0cac1ecdc81856040516116d4929190613589565b60405180910390a1505050505050565b6000806116f083610b39565b90508073ffffffffffffffffffffffffffffffffffffffff168473ffffffffffffffffffffffffffffffffffffffff161480611732575061173181856112b8565b5b8061177057508373ffffffffffffffffffffffffffffffffffffffff16611758846107b7565b73ffffffffffffffffffffffffffffffffffffffff16145b91505092915050565b8273ffffffffffffffffffffffffffffffffffffffff1661179982610b39565b73ffffffffffffffffffffffffffffffffffffffff16146117ef576040517f08c379a00000000000000000000000000000000000000000000000000000000081526004016117e690613624565b60405180910390fd5b600073ffffffffffffffffffffffffffffffffffffffff168273ffffffffffffffffffffffffffffffffffffffff160361185e576040517f08c379a0000000000000000000000000000000000000000000000000000000008152600401611855906136b6565b60405180910390fd5b61186b8383836001611f06565b8273ffffffffffffffffffffffffffffffffffffffff1661188b82610b39565b73ffffffffffffffffffffffffffffffffffffffff16146118e1576040517f08c379a00000000000000000000000000000000000000000000000000000000081526004016118d890613624565b60405180910390fd5b6004600082815260200190815260200160002060006101000a81549073ffffffffffffffffffffffffffffffffffffffff02191690556001600360008573ffffffffffffffffffffffffffffffffffffffff1673ffffffffffffffffffffffffffffffffffffffff168152602001908152602001600020600082825403925050819055506001600360008473ffffffffffffffffffffffffffffffffffffffff1673ffffffffffffffffffffffffffffffffffffffff16815260200190815260200160002060008282540192505081905550816002600083815260200190815260200160002060006101000a81548173ffffffffffffffffffffffffffffffffffffffff021916908373ffffffffffffffffffffffffffffffffffffffff160217905550808273ffffffffffffffffffffffffffffffffffffffff168473ffffffffffffffffffffffffffffffffffffffff167fddf252ad1be2c89b69c2b068fc378daa952ba7f163c4a11628f55a4df523b3ef60405160405180910390a4611a6d838383600161202c565b505050565b611a7a611484565b73ffffffffffffffffffffffffffffffffffffffff16611a98610d6c565b73ffffffffffffffffffffffffffffffffffffffff1614611aee576040517f08c379a0000000000000000000000000000000000000000000000000000000008152600401611ae590613722565b60405180910390fd5b565b60006002600083815260200190815260200160002060009054906101000a900473ffffffffffffffffffffffffffffffffffffffff169050919050565b6000600760009054906101000a900473ffffffffffffffffffffffffffffffffffffffff16905081600760006101000a81548173ffffffffffffffffffffffffffffffffffffffff021916908373ffffffffffffffffffffffffffffffffffffffff1602179055508173ffffffffffffffffffffffffffffffffffffffff168173ffffffffffffffffffffffffffffffffffffffff167f8be0079c531659141344cd1fd0a4f28419497f9722a3daafe3b4186f6b6457e060405160405180910390a35050565b8173ffffffffffffffffffffffffffffffffffffffff168373ffffffffffffffffffffffffffffffffffffffff1603611c61576040517f08c379a0000000000000000000000000000000000000000000000000000000008152600401611c589061378e565b60405180910390fd5b80600560008573ffffffffffffffffffffffffffffffffffffffff1673ffffffffffffffffffffffffffffffffffffffff16815260200190815260200160002060008473ffffffffffffffffffffffffffffffffffffffff1673ffffffffffffffffffffffffffffffffffffffff16815260200190815260200160002060006101000a81548160ff0219169083151502179055508173ffffffffffffffffffffffffffffffffffffffff168373ffffffffffffffffffffffffffffffffffffffff167f17307eab39ab6107e8899845ad3d59bd9653f200f220920489ca2b5937696c3183604051611d52919061274b565b60405180910390a3505050565b611d6a848484611779565b611d7684848484612032565b611db5576040517f08c379a0000000000000000000000000000000000000000000000000000000008152600401611dac90613820565b60405180910390fd5b50505050565b606060405180602001604052806000815250905090565b6060611ddd82611439565b6000611de7611dbb565b90506000815111611e075760405180602001604052806000815250611e32565b80611e11846121b9565b604051602001611e22929190613473565b6040516020818303038152906040525b915050919050565b60008073ffffffffffffffffffffffffffffffffffffffff16611e5c83611af0565b73ffffffffffffffffffffffffffffffffffffffff1614159050919050565b611e95828260405180602001604052806000815250612287565b5050565b611ea282611e3a565b611ee1576040517f08c379a0000000000000000000000000000000000000000000000000000000008152600401611ed8906138b2565b60405180910390fd5b80600660008481526020019081526020016000209081611f019190613a7e565b505050565b600181111561202657600073ffffffffffffffffffffffffffffffffffffffff168473ffffffffffffffffffffffffffffffffffffffff1614611f9a5780600360008673ffffffffffffffffffffffffffffffffffffffff1673ffffffffffffffffffffffffffffffffffffffff1681526020019081526020016000206000828254611f929190613b50565b925050819055505b600073ffffffffffffffffffffffffffffffffffffffff168373ffffffffffffffffffffffffffffffffffffffff16146120255780600360008573ffffffffffffffffffffffffffffffffffffffff1673ffffffffffffffffffffffffffffffffffffffff168152602001908152602001600020600082825461201d91906132ae565b925050819055505b5b50505050565b50505050565b60006120538473ffffffffffffffffffffffffffffffffffffffff166122e2565b156121ac578373ffffffffffffffffffffffffffffffffffffffff1663150b7a0261207c611484565b8786866040518563ffffffff1660e01b815260040161209e9493929190613bd9565b6020604051808303816000875af19250505080156120da57506040513d601f19601f820116820180604052508101906120d79190613c3a565b60015b61215c573d806000811461210a576040519150601f19603f3d011682016040523d82523d6000602084013e61210f565b606091505b506000815103612154576040517f08c379a000000000000000000000000000000000000000000000000000000000815260040161214b90613820565b60405180910390fd5b805181602001fd5b63150b7a0260e01b7bffffffffffffffffffffffffffffffffffffffffffffffffffffffff1916817bffffffffffffffffffffffffffffffffffffffffffffffffffffffff1916149150506121b1565b600190505b949350505050565b6060600060016121c884612305565b01905060008167ffffffffffffffff8111156121e7576121e6612972565b5b6040519080825280601f01601f1916602001820160405280156122195781602001600182028036833780820191505090505b509050600082602001820190505b60011561227c578080600190039150507f3031323334353637383961626364656600000000000000000000000000000000600a86061a8153600a85816122705761226f613529565b5b04945060008503612227575b819350505050919050565b6122918383612458565b61229e6000848484612032565b6122dd576040517f08c379a00000000000000000000000000000000000000000000000000000000081526004016122d490613820565b60405180910390fd5b505050565b6000808273ffffffffffffffffffffffffffffffffffffffff163b119050919050565b600080600090507a184f03e93ff9f4daa797ed6e38ed64bf6a1f0100000000000000008310612363577a184f03e93ff9f4daa797ed6e38ed64bf6a1f010000000000000000838161235957612358613529565b5b0492506040810190505b6d04ee2d6d415b85acef810000000083106123a0576d04ee2d6d415b85acef8100000000838161239657612395613529565b5b0492506020810190505b662386f26fc1000083106123cf57662386f26fc1000083816123c5576123c4613529565b5b0492506010810190505b6305f5e10083106123f8576305f5e10083816123ee576123ed613529565b5b0492506008810190505b612710831061241d57612710838161241357612412613529565b5b0492506004810190505b60648310612440576064838161243657612435613529565b5b0492506002810190505b600a831061244f576001810190505b80915050919050565b600073ffffffffffffffffffffffffffffffffffffffff168273ffffffffffffffffffffffffffffffffffffffff16036124c7576040517f08c379a00000000000000000000000000000000000000000000000000000000081526004016124be90613cb3565b60405180910390fd5b6124d081611e3a565b15612510576040517f08c379a000000000000000000000000000000000000000000000000000000000815260040161250790613d1f565b60405180910390fd5b61251e600083836001611f06565b61252781611e3a565b15612567576040517f08c379a000000000000000000000000000000000000000000000000000000000815260040161255e90613d1f565b60405180910390fd5b6001600360008473ffffffffffffffffffffffffffffffffffffffff1673ffffffffffffffffffffffffffffffffffffffff16815260200190815260200160002060008282540192505081905550816002600083815260200190815260200160002060006101000a81548173ffffffffffffffffffffffffffffffffffffffff021916908373ffffffffffffffffffffffffffffffffffffffff160217905550808273ffffffffffffffffffffffffffffffffffffffff16600073ffffffffffffffffffffffffffffffffffffffff167fddf252ad1be2c89b69c2b068fc378daa952ba7f163c4a11628f55a4df523b3ef60405160405180910390a461267160008383600161202c565b5050565b6040518060600160405280600390602082028036833780820191505090505090565b6000604051905090565b600080fd5b600080fd5b60007fffffffff0000000000000000000000000000000000000000000000000000000082169050919050565b6126e0816126ab565b81146126eb57600080fd5b50565b6000813590506126fd816126d7565b92915050565b600060208284031215612719576127186126a1565b5b6000612727848285016126ee565b91505092915050565b60008115159050919050565b61274581612730565b82525050565b6000602082019050612760600083018461273c565b92915050565b600081519050919050565b600082825260208201905092915050565b60005b838110156127a0578082015181840152602081019050612785565b60008484015250505050565b6000601f19601f8301169050919050565b60006127c882612766565b6127d28185612771565b93506127e2818560208601612782565b6127eb816127ac565b840191505092915050565b6000602082019050818103600083015261281081846127bd565b905092915050565b6000819050919050565b61282b81612818565b811461283657600080fd5b50565b60008135905061284881612822565b92915050565b600060208284031215612864576128636126a1565b5b600061287284828501612839565b91505092915050565b600073ffffffffffffffffffffffffffffffffffffffff82169050919050565b60006128a68261287b565b9050919050565b6128b68161289b565b82525050565b60006020820190506128d160008301846128ad565b92915050565b6128e08161289b565b81146128eb57600080fd5b50565b6000813590506128fd816128d7565b92915050565b6000806040838503121561291a576129196126a1565b5b6000612928858286016128ee565b925050602061293985828601612839565b9150509250929050565b61294c81612818565b82525050565b60006020820190506129676000830184612943565b92915050565b600080fd5b7f4e487b7100000000000000000000000000000000000000000000000000000000600052604160045260246000fd5b6129aa826127ac565b810181811067ffffffffffffffff821117156129c9576129c8612972565b5b80604052505050565b60006129dc612697565b90506129e882826129a1565b919050565b600067ffffffffffffffff821115612a0857612a07612972565b5b602082029050602081019050919050565b600080fd5b6000612a31612a2c846129ed565b6129d2565b90508083825260208201905060208402830185811115612a5457612a53612a19565b5b835b81811015612a7d5780612a698882612839565b845260208401935050602081019050612a56565b5050509392505050565b600082601f830112612a9c57612a9b61296d565b5b8135612aac848260208601612a1e565b91505092915050565b60008060408385031215612acc57612acb6126a1565b5b6000612ada85828601612839565b925050602083013567ffffffffffffffff811115612afb57612afa6126a6565b5b612b0785828601612a87565b9150509250929050565b600080600060608486031215612b2a57612b296126a1565b5b6000612b38868287016128ee565b9350506020612b49868287016128ee565b9250506040612b5a86828701612839565b9150509250925092565b600060039050919050565b600081905092915050565b6000819050919050565b612b8d81612818565b82525050565b6000612b9f8383612b84565b60208301905092915050565b6000602082019050919050565b612bc181612b64565b612bcb8184612b6f565b9250612bd682612b7a565b8060005b83811015612c07578151612bee8782612b93565b9650612bf983612bab565b925050600181019050612bda565b505050505050565b6000606082019050612c246000830184612bb8565b92915050565b600060208284031215612c4057612c3f6126a1565b5b6000612c4e848285016128ee565b91505092915050565b612c6081612730565b8114612c6b57600080fd5b50565b600081359050612c7d81612c57565b92915050565b60008060408385031215612c9a57612c996126a1565b5b6000612ca8858286016128ee565b9250506020612cb985828601612c6e565b9150509250929050565b7f4e487b7100000000000000000000000000000000000000000000000000000000600052602160045260246000fd5b60038110612d0357612d02612cc3565b5b50565b6000819050612d1482612cf2565b919050565b6000612d2482612d06565b9050919050565b612d3481612d19565b82525050565b6000602082019050612d4f6000830184612d2b565b92915050565b600080fd5b600067ffffffffffffffff821115612d7557612d74612972565b5b612d7e826127ac565b9050602081019050919050565b82818337600083830152505050565b6000612dad612da884612d5a565b6129d2565b905082815260208101848484011115612dc957612dc8612d55565b5b612dd4848285612d8b565b509392505050565b600082601f830112612df157612df061296d565b5b8135612e01848260208601612d9a565b91505092915050565b60008060008060808587031215612e2457612e236126a1565b5b6000612e32878288016128ee565b9450506020612e43878288016128ee565b9350506040612e5487828801612839565b925050606085013567ffffffffffffffff811115612e7557612e746126a6565b5b612e8187828801612ddc565b91505092959194509250565b60008060408385031215612ea457612ea36126a1565b5b6000612eb2858286016128ee565b9250506020612ec3858286016128ee565b9150509250929050565b7f4e487b7100000000000000000000000000000000000000000000000000000000600052602260045260246000fd5b60006002820490506001821680612f1457607f821691505b602082108103612f2757612f26612ecd565b5b50919050565b7f4552433732313a20617070726f76616c20746f2063757272656e74206f776e6560008201527f7200000000000000000000000000000000000000000000000000000000000000602082015250565b6000612f89602183612771565b9150612f9482612f2d565b604082019050919050565b60006020820190508181036000830152612fb881612f7c565b9050919050565b7f4552433732313a20617070726f76652063616c6c6572206973206e6f7420746f60008201527f6b656e206f776e6572206f7220617070726f76656420666f7220616c6c000000602082015250565b600061301b603d83612771565b915061302682612fbf565b604082019050919050565b6000602082019050818103600083015261304a8161300e565b9050919050565b600060408201905061306660008301856128ad565b61307360208301846128ad565b9392505050565b7f4552433732313a2063616c6c6572206973206e6f7420746f6b656e206f776e6560008201527f72206f7220617070726f76656400000000000000000000000000000000000000602082015250565b60006130d6602d83612771565b91506130e18261307a565b604082019050919050565b60006020820190508181036000830152613105816130c9565b9050919050565b600081905092915050565b50565b600061312760008361310c565b915061313282613117565b600082019050919050565b60006131488261311a565b9150819050919050565b7f4552433732313a20696e76616c696420746f6b656e2049440000000000000000600082015250565b6000613188601883612771565b915061319382613152565b602082019050919050565b600060208201905081810360008301526131b78161317b565b9050919050565b7f4552433732313a2061646472657373207a65726f206973206e6f74206120766160008201527f6c6964206f776e65720000000000000000000000000000000000000000000000602082015250565b600061321a602983612771565b9150613225826131be565b604082019050919050565b600060208201905081810360008301526132498161320d565b9050919050565b7f4e487b7100000000000000000000000000000000000000000000000000000000600052603260045260246000fd5b7f4e487b7100000000000000000000000000000000000000000000000000000000600052601160045260246000fd5b60006132b982612818565b91506132c483612818565b92508282019050808211156132dc576132db61327f565b5b92915050565b60006132ed82612818565b91507fffffffffffffffffffffffffffffffffffffffffffffffffffffffffffffffff820361331f5761331e61327f565b5b600182019050919050565b6000819050919050565b61333d8161332a565b82525050565b600067ffffffffffffffff82169050919050565b61336081613343565b82525050565b600061ffff82169050919050565b61337d81613366565b82525050565b600063ffffffff82169050919050565b61339c81613383565b82525050565b600060a0820190506133b76000830188613334565b6133c46020830187613357565b6133d16040830186613374565b6133de6060830185613393565b6133eb6080830184613393565b9695505050505050565b60008151905061340481612822565b92915050565b6000602082840312156134205761341f6126a1565b5b600061342e848285016133f5565b91505092915050565b600081905092915050565b600061344d82612766565b6134578185613437565b9350613467818560208601612782565b80840191505092915050565b600061347f8285613442565b915061348b8284613442565b91508190509392505050565b7f4f776e61626c653a206e6577206f776e657220697320746865207a65726f206160008201527f6464726573730000000000000000000000000000000000000000000000000000602082015250565b60006134f3602683612771565b91506134fe82613497565b604082019050919050565b60006020820190508181036000830152613522816134e6565b9050919050565b7f4e487b7100000000000000000000000000000000000000000000000000000000600052601260045260246000fd5b600061356382612818565b915061356e83612818565b92508261357e5761357d613529565b5b828206905092915050565b600060408201905061359e6000830185612d2b565b6135ab60208301846128ad565b9392505050565b7f4552433732313a207472616e736665722066726f6d20696e636f72726563742060008201527f6f776e6572000000000000000000000000000000000000000000000000000000602082015250565b600061360e602583612771565b9150613619826135b2565b604082019050919050565b6000602082019050818103600083015261363d81613601565b9050919050565b7f4552433732313a207472616e7366657220746f20746865207a65726f2061646460008201527f7265737300000000000000000000000000000000000000000000000000000000602082015250565b60006136a0602483612771565b91506136ab82613644565b604082019050919050565b600060208201905081810360008301526136cf81613693565b9050919050565b7f4f776e61626c653a2063616c6c6572206973206e6f7420746865206f776e6572600082015250565b600061370c602083612771565b9150613717826136d6565b602082019050919050565b6000602082019050818103600083015261373b816136ff565b9050919050565b7f4552433732313a20617070726f766520746f2063616c6c657200000000000000600082015250565b6000613778601983612771565b915061378382613742565b602082019050919050565b600060208201905081810360008301526137a78161376b565b9050919050565b7f4552433732313a207472616e7366657220746f206e6f6e20455243373231526560008201527f63656976657220696d706c656d656e7465720000000000000000000000000000602082015250565b600061380a603283612771565b9150613815826137ae565b604082019050919050565b60006020820190508181036000830152613839816137fd565b9050919050565b7f45524337323155524953746f726167653a2055524920736574206f66206e6f6e60008201527f6578697374656e7420746f6b656e000000000000000000000000000000000000602082015250565b600061389c602e83612771565b91506138a782613840565b604082019050919050565b600060208201905081810360008301526138cb8161388f565b9050919050565b60008190508160005260206000209050919050565b60006020601f8301049050919050565b600082821b905092915050565b6000600883026139347fffffffffffffffffffffffffffffffffffffffffffffffffffffffffffffffff826138f7565b61393e86836138f7565b95508019841693508086168417925050509392505050565b6000819050919050565b600061397b61397661397184612818565b613956565b612818565b9050919050565b6000819050919050565b61399583613960565b6139a96139a182613982565b848454613904565b825550505050565b600090565b6139be6139b1565b6139c981848461398c565b505050565b5b818110156139ed576139e26000826139b6565b6001810190506139cf565b5050565b601f821115613a3257613a03816138d2565b613a0c846138e7565b81016020851015613a1b578190505b613a2f613a27856138e7565b8301826139ce565b50505b505050565b600082821c905092915050565b6000613a5560001984600802613a37565b1980831691505092915050565b6000613a6e8383613a44565b9150826002028217905092915050565b613a8782612766565b67ffffffffffffffff811115613aa057613a9f612972565b5b613aaa8254612efc565b613ab58282856139f1565b600060209050601f831160018114613ae85760008415613ad6578287015190505b613ae08582613a62565b865550613b48565b601f198416613af6866138d2565b60005b82811015613b1e57848901518255600182019150602085019450602081019050613af9565b86831015613b3b5784890151613b37601f891682613a44565b8355505b6001600288020188555050505b505050505050565b6000613b5b82612818565b9150613b6683612818565b9250828203905081811115613b7e57613b7d61327f565b5b92915050565b600081519050919050565b600082825260208201905092915050565b6000613bab82613b84565b613bb58185613b8f565b9350613bc5818560208601612782565b613bce816127ac565b840191505092915050565b6000608082019050613bee60008301876128ad565b613bfb60208301866128ad565b613c086040830185612943565b8181036060830152613c1a8184613ba0565b905095945050505050565b600081519050613c34816126d7565b92915050565b600060208284031215613c5057613c4f6126a1565b5b6000613c5e84828501613c25565b91505092915050565b7f4552433732313a206d696e7420746f20746865207a65726f2061646472657373600082015250565b6000613c9d602083612771565b9150613ca882613c67565b602082019050919050565b60006020820190508181036000830152613ccc81613c90565b9050919050565b7f4552433732313a20746f6b656e20616c7265616479206d696e74656400000000600082015250565b6000613d09601c83612771565b9150613d1482613cd3565b602082019050919050565b60006020820190508181036000830152613d3881613cfc565b905091905056fea2646970667358221220fd7e816652ca21ac5b87a399afaafddc1adfccc61941a7fb2bee9ef85d75602a64736f6c63430008110033",
  "linkReferences": {},
  "deployedLinkReferences": {}
}