{
  "_format": "hh-sol-artifact-1",
  "contractName": "RandomIpfsNft",
  "sourceName": "contracts/RandomIpfsNft.sol",
  "abi": [
    {
      "inputs": [
        {
          "internalType": "address",
          "name": "vrfCoordinatorV2",
          "type": "address"
        },
        {
          "internalType": "bytes32",
          "name": "gaslane",
          "type": "bytes32"
        },
        {
          "internalType": "uint64",
          "name": "subscriptionId",
          "type": "uint64"
        },
        {
          "internalType": "uint32",
          "name": "callbackGasLimit",
          "type": "uint32"
        },
        {
          "internalType": "string[3]",
          "name": "tokenUris",
          "type": "string[3]"
        },
        {
          "internalType": "uint256",
          "name": "mintFee",
          "type": "uint256"
        }
      ],
      "stateMutability": "nonpayable",
      "type": "constructor"
    },
    {
      "inputs": [
        {
          "internalType": "address",
          "name": "have",
          "type": "address"
        },
        {
          "internalType": "address",
          "name": "want",
          "type": "address"
        }
      ],
      "name": "OnlyCoordinatorCanFulfill",
      "type": "error"
    },
    {
      "inputs": [],
      "name": "RandomIpfsNft__AlreadyIntialized",
      "type": "error"
    },
    {
      "inputs": [],
      "name": "RandomIpfsNft__NotEnoughETH",
      "type": "error"
    },
    {
      "inputs": [],
      "name": "RandomIpfsNft__RangeOutOfBounds",
      "type": "error"
    },
    {
      "inputs": [],
      "name": "RandomIpfsNft__TransferFailed",
      "type": "error"
    },
    {
      "anonymous": false,
      "inputs": [
        {
          "indexed": true,
          "internalType": "address",
          "name": "owner",
          "type": "address"
        },
        {
          "indexed": true,
          "internalType": "address",
          "name": "approved",
          "type": "address"
        },
        {
          "indexed": true,
          "internalType": "uint256",
          "name": "tokenId",
          "type": "uint256"
        }
      ],
      "name": "Approval",
      "type": "event"
    },
    {
      "anonymous": false,
      "inputs": [
        {
          "indexed": true,
          "internalType": "address",
          "name": "owner",
          "type": "address"
        },
        {
          "indexed": true,
          "internalType": "address",
          "name": "operator",
          "type": "address"
        },
        {
          "indexed": false,
          "internalType": "bool",
          "name": "approved",
          "type": "bool"
        }
      ],
      "name": "ApprovalForAll",
      "type": "event"
    },
    {
      "anonymous": false,
      "inputs": [
        {
          "indexed": false,
          "internalType": "enum RandomIpfsNft.Breed",
          "name": "dogBreed",
          "type": "uint8"
        },
        {
          "indexed": false,
          "internalType": "address",
          "name": "minter",
          "type": "address"
        }
      ],
      "name": "NftMinted",
      "type": "event"
    },
    {
      "anonymous": false,
      "inputs": [
        {
          "indexed": true,
          "internalType": "uint256",
          "name": "requestId",
          "type": "uint256"
        },
        {
          "indexed": false,
          "internalType": "address",
          "name": "requester",
          "type": "address"
        }
      ],
      "name": "NftRequested",
      "type": "event"
    },
    {
      "anonymous": false,
      "inputs": [
        {
          "indexed": true,
          "internalType": "address",
          "name": "previousOwner",
          "type": "address"
        },
        {
          "indexed": true,
          "internalType": "address",
          "name": "newOwner",
          "type": "address"
        }
      ],
      "name": "OwnershipTransferred",
      "type": "event"
    },
    {
      "anonymous": false,
      "inputs": [
        {
          "indexed": true,
          "internalType": "address",
          "name": "from",
          "type": "address"
        },
        {
          "indexed": true,
          "internalType": "address",
          "name": "to",
          "type": "address"
        },
        {
          "indexed": true,
          "internalType": "uint256",
          "name": "tokenId",
          "type": "uint256"
        }
      ],
      "name": "Transfer",
      "type": "event"
    },
    {
      "inputs": [
        {
          "internalType": "address",
          "name": "to",
          "type": "address"
        },
        {
          "internalType": "uint256",
          "name": "tokenId",
          "type": "uint256"
        }
      ],
      "name": "approve",
      "outputs": [],
      "stateMutability": "nonpayable",
      "type": "function"
    },
    {
      "inputs": [
        {
          "internalType": "address",
          "name": "owner",
          "type": "address"
        }
      ],
      "name": "balanceOf",
      "outputs": [
        {
          "internalType": "uint256",
          "name": "",
          "type": "uint256"
        }
      ],
      "stateMutability": "view",
      "type": "function"
    },
    {
      "inputs": [
        {
          "internalType": "uint256",
          "name": "tokenId",
          "type": "uint256"
        }
      ],
      "name": "getApproved",
      "outputs": [
        {
          "internalType": "address",
          "name": "",
          "type": "address"
        }
      ],
      "stateMutability": "view",
      "type": "function"
    },
    {
      "inputs": [
        {
          "internalType": "uint256",
          "name": "moddedRng",
          "type": "uint256"
        }
      ],
      "name": "getBreedFromModdedRng",
      "outputs": [
        {
          "internalType": "enum RandomIpfsNft.Breed",
          "name": "",
          "type": "uint8"
        }
      ],
      "stateMutability": "pure",
      "type": "function"
    },
    {
      "inputs": [],
      "name": "getChanceArray",
      "outputs": [
        {
          "internalType": "uint256[3]",
          "name": "",
          "type": "uint256[3]"
        }
      ],
      "stateMutability": "pure",
      "type": "function"
    },
    {
      "inputs": [
        {
          "internalType": "uint256",
          "name": "index",
          "type": "uint256"
        }
      ],
      "name": "getDogTokenUri",
      "outputs": [
        {
          "internalType": "string",
          "name": "",
          "type": "string"
        }
      ],
      "stateMutability": "view",
      "type": "function"
    },
    {
      "inputs": [],
      "name": "getMintFee",
      "outputs": [
        {
          "internalType": "uint256",
          "name": "",
          "type": "uint256"
        }
      ],
      "stateMutability": "view",
      "type": "function"
    },
    {
      "inputs": [],
      "name": "getTokenCounter",
      "outputs": [
        {
          "internalType": "uint256",
          "name": "",
          "type": "uint256"
        }
      ],
      "stateMutability": "view",
      "type": "function"
    },
    {
      "inputs": [],
      "name": "getTokenUrisIntialized",
      "outputs": [
        {
          "internalType": "bool",
          "name": "",
          "type": "bool"
        }
      ],
      "stateMutability": "view",
      "type": "function"
    },
    {
      "inputs": [
        {
          "internalType": "address",
          "name": "owner",
          "type": "address"
        },
        {
          "internalType": "address",
          "name": "operator",
          "type": "address"
        }
      ],
      "name": "isApprovedForAll",
      "outputs": [
        {
          "internalType": "bool",
          "name": "",
          "type": "bool"
        }
      ],
      "stateMutability": "view",
      "type": "function"
    },
    {
      "inputs": [],
      "name": "name",
      "outputs": [
        {
          "internalType": "string",
          "name": "",
          "type": "string"
        }
      ],
      "stateMutability": "view",
      "type": "function"
    },
    {
      "inputs": [],
      "name": "owner",
      "outputs": [
        {
          "internalType": "address",
          "name": "",
          "type": "address"
        }
      ],
      "stateMutability": "view",
      "type": "function"
    },
    {
      "inputs": [
        {
          "internalType": "uint256",
          "name": "tokenId",
          "type": "uint256"
        }
      ],
      "name": "ownerOf",
      "outputs": [
        {
          "internalType": "address",
          "name": "",
          "type": "address"
        }
      ],
      "stateMutability": "view",
      "type": "function"
    },
    {
      "inputs": [
        {
          "internalType": "uint256",
          "name": "requestId",
          "type": "uint256"
        },
        {
          "internalType": "uint256[]",
          "name": "randomWords",
          "type": "uint256[]"
        }
      ],
      "name": "rawFulfillRandomWords",
      "outputs": [],
      "stateMutability": "nonpayable",
      "type": "function"
    },
    {
      "inputs": [],
      "name": "renounceOwnership",
      "outputs": [],
      "stateMutability": "nonpayable",
      "type": "function"
    },
    {
      "inputs": [],
      "name": "requestNft",
      "outputs": [
        {
          "internalType": "uint256",
          "name": "requestId",
          "type": "uint256"
        }
      ],
      "stateMutability": "payable",
      "type": "function"
    },
    {
      "inputs": [
        {
          "internalType": "uint256",
          "name": "",
          "type": "uint256"
        }
      ],
      "name": "s_requestIdToSender",
      "outputs": [
        {
          "internalType": "address",
          "name": "",
          "type": "address"
        }
      ],
      "stateMutability": "view",
      "type": "function"
    },
    {
      "inputs": [],
      "name": "s_tokenCounter",
      "outputs": [
        {
          "internalType": "uint256",
          "name": "",
          "type": "uint256"
        }
      ],
      "stateMutability": "view",
      "type": "function"
    },
    {
      "inputs": [
        {
          "internalType": "address",
          "name": "from",
          "type": "address"
        },
        {
          "internalType": "address",
          "name": "to",
          "type": "address"
        },
        {
          "internalType": "uint256",
          "name": "tokenId",
          "type": "uint256"
        }
      ],
      "name": "safeTransferFrom",
      "outputs": [],
      "stateMutability": "nonpayable",
      "type": "function"
    },
    {
      "inputs": [
        {
          "internalType": "address",
          "name": "from",
          "type": "address"
        },
        {
          "internalType": "address",
          "name": "to",
          "type": "address"
        },
        {
          "internalType": "uint256",
          "name": "tokenId",
          "type": "uint256"
        },
        {
          "internalType": "bytes",
          "name": "data",
          "type": "bytes"
        }
      ],
      "name": "safeTransferFrom",
      "outputs": [],
      "stateMutability": "nonpayable",
      "type": "function"
    },
    {
      "inputs": [
        {
          "internalType": "address",
          "name": "operator",
          "type": "address"
        },
        {
          "internalType": "bool",
          "name": "approved",
          "type": "bool"
        }
      ],
      "name": "setApprovalForAll",
      "outputs": [],
      "stateMutability": "nonpayable",
      "type": "function"
    },
    {
      "inputs": [
        {
          "internalType": "bytes4",
          "name": "interfaceId",
          "type": "bytes4"
        }
      ],
      "name": "supportsInterface",
      "outputs": [
        {
          "internalType": "bool",
          "name": "",
          "type": "bool"
        }
      ],
      "stateMutability": "view",
      "type": "function"
    },
    {
      "inputs": [],
      "name": "symbol",
      "outputs": [
        {
          "internalType": "string",
          "name": "",
          "type": "string"
        }
      ],
      "stateMutability": "view",
      "type": "function"
    },
    {
      "inputs": [
        {
          "internalType": "uint256",
          "name": "tokenId",
          "type": "uint256"
        }
      ],
      "name": "tokenURI",
      "outputs": [
        {
          "internalType": "string",
          "name": "",
          "type": "string"
        }
      ],
      "stateMutability": "view",
      "type": "function"
    },
    {
      "inputs": [
        {
          "internalType": "address",
          "name": "from",
          "type": "address"
        },
        {
          "internalType": "address",
          "name": "to",
          "type": "address"
        },
        {
          "internalType": "uint256",
          "name": "tokenId",
          "type": "uint256"
        }
      ],
      "name": "transferFrom",
      "outputs": [],
      "stateMutability": "nonpayable",
      "type": "function"
    },
    {
      "inputs": [
        {
          "internalType": "address",
          "name": "newOwner",
          "type": "address"
        }
      ],
      "name": "transferOwnership",
      "outputs": [],
      "stateMutability": "nonpayable",
      "type": "function"
    },
    {
      "inputs": [],
      "name": "withdraw",
      "outputs": [],
      "stateMutability": "nonpayable",
      "type": "function"
    }
  ],
  "bytecode": "0x6101406040523480156200001257600080fd5b5060405162005110380380620051108339818101604052810190620000389190620009ad565b6040518060400160405280600f81526020017f52616e646f6d2049504653204e465400000000000000000000000000000000008152506040518060400160405280600381526020017f52494e0000000000000000000000000000000000000000000000000000000000815250878073ffffffffffffffffffffffffffffffffffffffff1660808173ffffffffffffffffffffffffffffffffffffffff1681525050508160009081620000eb919062000ca9565b508060019081620000fd919062000ca9565b5050506200012062000114620002b760201b60201c565b620002bf60201b60201c565b6200013c67b5fe93214f30246360c01b6200038560201b60201c565b620001586741416aad801418b760c01b6200038560201b60201c565b8573ffffffffffffffffffffffffffffffffffffffff1660a08173ffffffffffffffffffffffffffffffffffffffff1681525050620001a8677503af30a2bc6d8260c01b6200038560201b60201c565b846101008181525050620001cd67bb404b87c46bb63460c01b6200038560201b60201c565b8367ffffffffffffffff1660c08167ffffffffffffffff168152505062000205675a58db7a71f7f50460c01b6200038560201b60201c565b8263ffffffff1660e08163ffffffff168152505062000235678756cf0a9b70e1b160c01b6200038560201b60201c565b6200025167df839e2314e20ef660c01b6200038560201b60201c565b62000262826200038860201b60201c565b6200027e67c94bf46dfbd3e75860c01b6200038560201b60201c565b806101208181525050620002a367048143cb75ce087560c01b6200038560201b60201c565b600060098190555050505050505062000d90565b600033905090565b6000600760009054906101000a900473ffffffffffffffffffffffffffffffffffffffff16905081600760006101000a81548173ffffffffffffffffffffffffffffffffffffffff021916908373ffffffffffffffffffffffffffffffffffffffff1602179055508173ffffffffffffffffffffffffffffffffffffffff168173ffffffffffffffffffffffffffffffffffffffff167f8be0079c531659141344cd1fd0a4f28419497f9722a3daafe3b4186f6b6457e060405160405180910390a35050565b50565b620003a46732059ef7c32da99160c01b6200038560201b60201c565b620003c067ed269f8f0fde89de60c01b6200038560201b60201c565b620003dc676b5d2472c3eb325660c01b6200038560201b60201c565b600760149054906101000a900460ff16156200045c576200040e673f8963462a65a85e60c01b6200038560201b60201c565b6200042a678dc4cce2e22e7f3060c01b6200038560201b60201c565b6040517f0df7bb5b00000000000000000000000000000000000000000000000000000000815260040160405180910390fd5b620004786716d708260ae0b40260c01b6200038560201b60201c565b62000494672aaea09b6c8924b360c01b6200038560201b60201c565b80600a906003620004a7929190620004e2565b50620004c467df7a7d9e4f4550fd60c01b6200038560201b60201c565b6001600760146101000a81548160ff02191690831515021790555050565b8280548282559060005260206000209081019282156200052f579160200282015b828111156200052e5782518290816200051d919062000ca9565b509160200191906001019062000503565b5b5090506200053e919062000542565b5090565b5b808211156200056657600081816200055c91906200056a565b5060010162000543565b5090565b508054620005789062000aa2565b6000825580601f106200058c5750620005ad565b601f016020900490600052602060002090810190620005ac9190620005b0565b5b50565b5b80821115620005cb576000816000905550600101620005b1565b5090565b6000604051905090565b600080fd5b600080fd5b600073ffffffffffffffffffffffffffffffffffffffff82169050919050565b60006200061082620005e3565b9050919050565b620006228162000603565b81146200062e57600080fd5b50565b600081519050620006428162000617565b92915050565b6000819050919050565b6200065d8162000648565b81146200066957600080fd5b50565b6000815190506200067d8162000652565b92915050565b600067ffffffffffffffff82169050919050565b620006a28162000683565b8114620006ae57600080fd5b50565b600081519050620006c28162000697565b92915050565b600063ffffffff82169050919050565b620006e381620006c8565b8114620006ef57600080fd5b50565b6000815190506200070381620006d8565b92915050565b600080fd5b6000601f19601f8301169050919050565b7f4e487b7100000000000000000000000000000000000000000000000000000000600052604160045260246000fd5b62000759826200070e565b810181811067ffffffffffffffff821117156200077b576200077a6200071f565b5b80604052505050565b600062000790620005cf565b90506200079e82826200074e565b919050565b600067ffffffffffffffff821115620007c157620007c06200071f565b5b602082029050919050565b600080fd5b600080fd5b600067ffffffffffffffff821115620007f457620007f36200071f565b5b620007ff826200070e565b9050602081019050919050565b60005b838110156200082c5780820151818401526020810190506200080f565b60008484015250505050565b60006200084f6200084984620007d6565b62000784565b9050828152602081018484840111156200086e576200086d620007d1565b5b6200087b8482856200080c565b509392505050565b600082601f8301126200089b576200089a62000709565b5b8151620008ad84826020860162000838565b91505092915050565b6000620008cd620008c784620007a3565b62000784565b90508060208402830185811115620008ea57620008e9620007cc565b5b835b818110156200093857805167ffffffffffffffff81111562000913576200091262000709565b5b80860162000922898262000883565b85526020850194505050602081019050620008ec565b5050509392505050565b600082601f8301126200095a576200095962000709565b5b600362000969848285620008b6565b91505092915050565b6000819050919050565b620009878162000972565b81146200099357600080fd5b50565b600081519050620009a7816200097c565b92915050565b60008060008060008060c08789031215620009cd57620009cc620005d9565b5b6000620009dd89828a0162000631565b9650506020620009f089828a016200066c565b955050604062000a0389828a01620006b1565b945050606062000a1689828a01620006f2565b935050608087015167ffffffffffffffff81111562000a3a5762000a39620005de565b5b62000a4889828a0162000942565b92505060a062000a5b89828a0162000996565b9150509295509295509295565b600081519050919050565b7f4e487b7100000000000000000000000000000000000000000000000000000000600052602260045260246000fd5b6000600282049050600182168062000abb57607f821691505b60208210810362000ad15762000ad062000a73565b5b50919050565b60008190508160005260206000209050919050565b60006020601f8301049050919050565b600082821b905092915050565b60006008830262000b3b7fffffffffffffffffffffffffffffffffffffffffffffffffffffffffffffffff8262000afc565b62000b47868362000afc565b95508019841693508086168417925050509392505050565b6000819050919050565b600062000b8a62000b8462000b7e8462000972565b62000b5f565b62000972565b9050919050565b6000819050919050565b62000ba68362000b69565b62000bbe62000bb58262000b91565b84845462000b09565b825550505050565b600090565b62000bd562000bc6565b62000be281848462000b9b565b505050565b5b8181101562000c0a5762000bfe60008262000bcb565b60018101905062000be8565b5050565b601f82111562000c595762000c238162000ad7565b62000c2e8462000aec565b8101602085101562000c3e578190505b62000c5662000c4d8562000aec565b83018262000be7565b50505b505050565b600082821c905092915050565b600062000c7e6000198460080262000c5e565b1980831691505092915050565b600062000c99838362000c6b565b9150826002028217905092915050565b62000cb48262000a68565b67ffffffffffffffff81111562000cd05762000ccf6200071f565b5b62000cdc825462000aa2565b62000ce982828562000c0e565b600060209050601f83116001811462000d21576000841562000d0c578287015190505b62000d18858262000c8b565b86555062000d88565b601f19841662000d318662000ad7565b60005b8281101562000d5b5784890151825560018201915060208501945060208101905062000d34565b8683101562000d7b578489015162000d77601f89168262000c6b565b8355505b6001600288020188555050505b505050505050565b60805160a05160c05160e051610100516101205161432262000dee60003960008181610f6e01526112e2015260006113c80152600061140c015260006113e90152600061138c01526000818161096201526109b601526143226000f3fe60806040526004361061019c5760003560e01c8063715018a6116100ec578063a51cccf31161008a578063c87b56dd11610064578063c87b56dd146105bb578063ddde7145146105f8578063e985e9c514610623578063f2fde38b146106605761019c565b8063a51cccf314610537578063aa15249114610574578063b88d4fde146105925761019c565b80638da5cb5b116100c65780638da5cb5b1461047b57806395d89b41146104a6578063a22cb465146104d1578063a36f573b146104fa5761019c565b8063715018a6146103fc578063741a63fa146104135780637a5caab3146104505761019c565b806323b872dd116101595780635dacf5f4116101335780635dacf5f41461032c5780636352211e146103575780636e02007d1461039457806370a08231146103bf5761019c565b806323b872dd146102c35780633ccfd60b146102ec57806342842e0e146103035761019c565b806301ffc9a7146101a157806306fdde03146101de578063081812fc14610209578063095ea7b3146102465780630b21a83b1461026f5780631fe543e31461029a575b600080fd5b3480156101ad57600080fd5b506101c860048036038101906101c39190612cb0565b610689565b6040516101d59190612cf8565b60405180910390f35b3480156101ea57600080fd5b506101f361076b565b6040516102009190612da3565b60405180910390f35b34801561021557600080fd5b50610230600480360381019061022b9190612dfb565b6107fd565b60405161023d9190612e69565b60405180910390f35b34801561025257600080fd5b5061026d60048036038101906102689190612eb0565b610843565b005b34801561027b57600080fd5b5061028461095a565b6040516102919190612eff565b60405180910390f35b3480156102a657600080fd5b506102c160048036038101906102bc9190613062565b610960565b005b3480156102cf57600080fd5b506102ea60048036038101906102e591906130be565b610a20565b005b3480156102f857600080fd5b50610301610a80565b005b34801561030f57600080fd5b5061032a600480360381019061032591906130be565b610c24565b005b34801561033857600080fd5b50610341610c44565b60405161034e91906131bc565b60405180910390f35b34801561036357600080fd5b5061037e60048036038101906103799190612dfb565b610cab565b60405161038b9190612e69565b60405180910390f35b3480156103a057600080fd5b506103a9610d31565b6040516103b69190612eff565b60405180910390f35b3480156103cb57600080fd5b506103e660048036038101906103e191906131d7565b610d77565b6040516103f39190612eff565b60405180910390f35b34801561040857600080fd5b50610411610e2e565b005b34801561041f57600080fd5b5061043a60048036038101906104359190612dfb565b610e42565b6040516104479190612da3565b60405180910390f35b34801561045c57600080fd5b50610465610f2e565b6040516104729190612eff565b60405180910390f35b34801561048757600080fd5b50610490610f92565b60405161049d9190612e69565b60405180910390f35b3480156104b257600080fd5b506104bb610fbc565b6040516104c89190612da3565b60405180910390f35b3480156104dd57600080fd5b506104f860048036038101906104f39190613230565b61104e565b005b34801561050657600080fd5b50610521600480360381019061051c9190612dfb565b611064565b60405161052e9190612e69565b60405180910390f35b34801561054357600080fd5b5061055e60048036038101906105599190612dfb565b611097565b60405161056b91906132e7565b60405180910390f35b61057c6112a2565b6040516105899190612eff565b60405180910390f35b34801561059e57600080fd5b506105b960048036038101906105b491906133b7565b61155b565b005b3480156105c757600080fd5b506105e260048036038101906105dd9190612dfb565b6115bd565b6040516105ef9190612da3565b60405180910390f35b34801561060457600080fd5b5061060d6116cf565b60405161061a9190612cf8565b60405180910390f35b34801561062f57600080fd5b5061064a6004803603810190610645919061343a565b611722565b6040516106579190612cf8565b60405180910390f35b34801561066c57600080fd5b50610687600480360381019061068291906131d7565b6117b6565b005b60007f80ac58cd000000000000000000000000000000000000000000000000000000007bffffffffffffffffffffffffffffffffffffffffffffffffffffffff1916827bffffffffffffffffffffffffffffffffffffffffffffffffffffffff1916148061075457507f5b5e139f000000000000000000000000000000000000000000000000000000007bffffffffffffffffffffffffffffffffffffffffffffffffffffffff1916827bffffffffffffffffffffffffffffffffffffffffffffffffffffffff1916145b80610764575061076382611839565b5b9050919050565b60606000805461077a906134a9565b80601f01602080910402602001604051908101604052809291908181526020018280546107a6906134a9565b80156107f35780601f106107c8576101008083540402835291602001916107f3565b820191906000526020600020905b8154815290600101906020018083116107d657829003601f168201915b5050505050905090565b6000610808826118a3565b6004600083815260200190815260200160002060009054906101000a900473ffffffffffffffffffffffffffffffffffffffff169050919050565b600061084e82610cab565b90508073ffffffffffffffffffffffffffffffffffffffff168373ffffffffffffffffffffffffffffffffffffffff16036108be576040517f08c379a00000000000000000000000000000000000000000000000000000000081526004016108b59061354c565b60405180910390fd5b8073ffffffffffffffffffffffffffffffffffffffff166108dd6118ee565b73ffffffffffffffffffffffffffffffffffffffff16148061090c575061090b816109066118ee565b611722565b5b61094b576040517f08c379a0000000000000000000000000000000000000000000000000000000008152600401610942906135de565b60405180910390fd5b61095583836118f6565b505050565b60095481565b7f000000000000000000000000000000000000000000000000000000000000000073ffffffffffffffffffffffffffffffffffffffff163373ffffffffffffffffffffffffffffffffffffffff1614610a1257337f00000000000000000000000000000000000000000000000000000000000000006040517f1cf993f4000000000000000000000000000000000000000000000000000000008152600401610a099291906135fe565b60405180910390fd5b610a1c82826119af565b5050565b610a31610a2b6118ee565b82611c8e565b610a70576040517f08c379a0000000000000000000000000000000000000000000000000000000008152600401610a6790613699565b60405180910390fd5b610a7b838383611d23565b505050565b610a9467dae56fbac07ff2f260c01b61201c565b610a9c61201f565b610ab067fe4f186350c214c460c01b61201c565b610ac4674bace61493e7076c60c01b61201c565b610ad86799feec4d1491ef5a60c01b61201c565b610aec6796b1fc38235b97a360c01b61201c565b6000479050610b0567c0dd23e2b58ea0ae60c01b61201c565b610b1967ee7a7520fd69e97360c01b61201c565b60003373ffffffffffffffffffffffffffffffffffffffff1682604051610b3f906136ea565b60006040518083038185875af1925050503d8060008114610b7c576040519150601f19603f3d011682016040523d82523d6000602084013e610b81565b606091505b50509050610b9967c711d879aadc957660c01b61201c565b610bad67aa34dbaa7637905b60c01b61201c565b80610c0c57610bc66746e1f1951c5e1dda60c01b61201c565b610bda678b435a5aef65fe0b60c01b61201c565b6040517fca7e25b700000000000000000000000000000000000000000000000000000000815260040160405180910390fd5b610c20675e7dad8e57cc9b5a60c01b61201c565b5050565b610c3f8383836040518060200160405280600081525061155b565b505050565b610c4c612c22565b610c60671badd11d4b823e1e60c01b61201c565b610c74674e513c4476d65e2e60c01b61201c565b610c8867ad77ce3290efc55860c01b61201c565b6040518060600160405280600a8152602001601e81526020016064815250905090565b600080610cb78361209d565b9050600073ffffffffffffffffffffffffffffffffffffffff168173ffffffffffffffffffffffffffffffffffffffff1603610d28576040517f08c379a0000000000000000000000000000000000000000000000000000000008152600401610d1f9061374b565b60405180910390fd5b80915050919050565b6000610d4767029f440e38aadac560c01b61201c565b610d5b67fb86627771746cf160c01b61201c565b610d6f6798667c2ed90983f560c01b61201c565b600954905090565b60008073ffffffffffffffffffffffffffffffffffffffff168273ffffffffffffffffffffffffffffffffffffffff1603610de7576040517f08c379a0000000000000000000000000000000000000000000000000000000008152600401610dde906137dd565b60405180910390fd5b600360008373ffffffffffffffffffffffffffffffffffffffff1673ffffffffffffffffffffffffffffffffffffffff168152602001908152602001600020549050919050565b610e3661201f565b610e4060006120da565b565b6060610e58673374ae3ea193e68860c01b61201c565b610e6c67dfa013cd5bf0042860c01b61201c565b610e80677a49bdb90f5899f260c01b61201c565b600a8281548110610e9457610e936137fd565b5b906000526020600020018054610ea9906134a9565b80601f0160208091040260200160405190810160405280929190818152602001828054610ed5906134a9565b8015610f225780601f10610ef757610100808354040283529160200191610f22565b820191906000526020600020905b815481529060010190602001808311610f0557829003601f168201915b50505050509050919050565b6000610f4467b7905d1b64074c0660c01b61201c565b610f586769cf9e8d291f9f1e60c01b61201c565b610f6c670e7666dbe196019f60c01b61201c565b7f0000000000000000000000000000000000000000000000000000000000000000905090565b6000600760009054906101000a900473ffffffffffffffffffffffffffffffffffffffff16905090565b606060018054610fcb906134a9565b80601f0160208091040260200160405190810160405280929190818152602001828054610ff7906134a9565b80156110445780601f1061101957610100808354040283529160200191611044565b820191906000526020600020905b81548152906001019060200180831161102757829003601f168201915b5050505050905090565b6110606110596118ee565b83836121a0565b5050565b60086020528060005260406000206000915054906101000a900473ffffffffffffffffffffffffffffffffffffffff1681565b60006110ad679b6a9fc54b611eed60c01b61201c565b6110c167cc77924ec83cd07860c01b61201c565b6110d5673ffcb01ae10968cb60c01b61201c565b60006110eb67273e12d78d6dd77a60c01b61201c565b6110ff67dca8ba353ec5bbc560c01b61201c565b6000611109610c44565b905061111f67176de62e6c51793260c01b61201c565b6111336740f32f920f553ee160c01b61201c565b60005b60038110156112565761115367f2eccd6c1eb2cb9060c01b61201c565b61116767bd929d7ba08888f260c01b61201c565b8285101580156111985750818160038110611185576111846137fd565b5b602002015183611195919061385b565b85105b156111f6576111b16715e2a3a0ce00328d60c01b61201c565b6111c567e5ee1fa9b06d905e60c01b61201c565b6111d9670fa85636c882a27c60c01b61201c565b8060028111156111ec576111eb613270565b5b935050505061129d565b61120a6770971fc0bf1ae9cd60c01b61201c565b61121e67b125f0b06507efe360c01b61201c565b818160038110611231576112306137fd565b5b602002015183611241919061385b565b9250808061124e9061388f565b915050611136565b5061126b67413b2ad90621a2ec60c01b61201c565b6040517f12806c9d00000000000000000000000000000000000000000000000000000000815260040160405180910390fd5b919050565b60006112b867b68e4daa2b0ef56060c01b61201c565b6112cc67c7c76edaee0ff1d860c01b61201c565b6112e067f1bc01673779fbd460c01b61201c565b7f00000000000000000000000000000000000000000000000000000000000000003410156113625761131c678baf2a6e221a4dca60c01b61201c565b6113306799cede50bc18a40660c01b61201c565b6040517f3964ba4b00000000000000000000000000000000000000000000000000000000815260040160405180910390fd5b61137667f7e3b4fd382f8ea560c01b61201c565b61138a677fcdc4077d20ec2f60c01b61201c565b7f000000000000000000000000000000000000000000000000000000000000000073ffffffffffffffffffffffffffffffffffffffff16635d3b1d307f00000000000000000000000000000000000000000000000000000000000000007f000000000000000000000000000000000000000000000000000000000000000060037f000000000000000000000000000000000000000000000000000000000000000060016040518663ffffffff1660e01b815260040161144d95949392919061394f565b6020604051808303816000875af115801561146c573d6000803e3d6000fd5b505050506040513d601f19601f8201168201806040525081019061149091906139b7565b90506114a66746c3c11f5a03863860c01b61201c565b336008600083815260200190815260200160002060006101000a81548173ffffffffffffffffffffffffffffffffffffffff021916908373ffffffffffffffffffffffffffffffffffffffff16021790555061150c678b3a650b2097a47c60c01b61201c565b611520670432443dcdea5f2360c01b61201c565b807ff873236e6cc0ecc5be1a9a35c95ee5b8d1ac4cc7bfef0cc5060391d6cc98e26b336040516115509190612e69565b60405180910390a290565b61156c6115666118ee565b83611c8e565b6115ab576040517f08c379a00000000000000000000000000000000000000000000000000000000081526004016115a290613699565b60405180910390fd5b6115b78484848461230c565b50505050565b60606115c8826118a3565b60006006600084815260200190815260200160002080546115e8906134a9565b80601f0160208091040260200160405190810160405280929190818152602001828054611614906134a9565b80156116615780601f1061163657610100808354040283529160200191611661565b820191906000526020600020905b81548152906001019060200180831161164457829003601f168201915b505050505090506000611672612368565b905060008151036116875781925050506116ca565b6000825111156116bc5780826040516020016116a4929190613a20565b604051602081830303815290604052925050506116ca565b6116c58461237f565b925050505b919050565b60006116e567dac9c1aeb9ca65a460c01b61201c565b6116f967717b758998f2708160c01b61201c565b61170d67a088fcef86ce8b3560c01b61201c565b600760149054906101000a900460ff16905090565b6000600560008473ffffffffffffffffffffffffffffffffffffffff1673ffffffffffffffffffffffffffffffffffffffff16815260200190815260200160002060008373ffffffffffffffffffffffffffffffffffffffff1673ffffffffffffffffffffffffffffffffffffffff16815260200190815260200160002060009054906101000a900460ff16905092915050565b6117be61201f565b600073ffffffffffffffffffffffffffffffffffffffff168173ffffffffffffffffffffffffffffffffffffffff160361182d576040517f08c379a000000000000000000000000000000000000000000000000000000000815260040161182490613ab6565b60405180910390fd5b611836816120da565b50565b60007f01ffc9a7000000000000000000000000000000000000000000000000000000007bffffffffffffffffffffffffffffffffffffffffffffffffffffffff1916827bffffffffffffffffffffffffffffffffffffffffffffffffffffffff1916149050919050565b6118ac816123e7565b6118eb576040517f08c379a00000000000000000000000000000000000000000000000000000000081526004016118e29061374b565b60405180910390fd5b50565b600033905090565b816004600083815260200190815260200160002060006101000a81548173ffffffffffffffffffffffffffffffffffffffff021916908373ffffffffffffffffffffffffffffffffffffffff160217905550808273ffffffffffffffffffffffffffffffffffffffff1661196983610cab565b73ffffffffffffffffffffffffffffffffffffffff167f8c5be1e5ebec7d5bd14f71427d1e84f3dd0314c0f7b2291e5b200ac8c7c3b92560405160405180910390a45050565b6119c3677ffdabc717380ad260c01b61201c565b6119d76712dfa5c156c712f760c01b61201c565b6119eb67f3c2b2ace32541af60c01b61201c565b60006008600084815260200190815260200160002060009054906101000a900473ffffffffffffffffffffffffffffffffffffffff169050611a37673ed22ede3b39df5d60c01b61201c565b611a4b67a890c83c1d5cfc5560c01b61201c565b60006009549050611a6667f6a7e60830c94ef560c01b61201c565b600160096000828254611a79919061385b565b92505081905550611a94673e71caff7cc81f0e60c01b61201c565b611aa8677ac48f88023666db60c01b61201c565b6000606484600081518110611ac057611abf6137fd565b5b6020026020010151611ad29190613b05565b9050611ae8675c12ca6cd421f6f860c01b61201c565b611afc676164ae15513f2a6b60c01b61201c565b6000611b0782611097565b9050611b1d678183a022aaf5abd160c01b61201c565b611b31677317af849b29f0f160c01b61201c565b611b3b8484612428565b611b4f67ac00e76109c21c5260c01b61201c565b611b63677e834276c22bea3e60c01b61201c565b611c2583600a836002811115611b7c57611b7b613270565b5b81548110611b8d57611b8c6137fd565b5b906000526020600020018054611ba2906134a9565b80601f0160208091040260200160405190810160405280929190818152602001828054611bce906134a9565b8015611c1b5780601f10611bf057610100808354040283529160200191611c1b565b820191906000526020600020905b815481529060010190602001808311611bfe57829003601f168201915b5050505050612446565b611c39677fe3272d1aeb465060c01b61201c565b611c4d6705b342ba0d03ec5960c01b61201c565b7f8a269f26b688e110e9cbd887d163dab35cae678fa353a0292de532c0cac1ecdc8185604051611c7e929190613b36565b60405180910390a1505050505050565b600080611c9a83610cab565b90508073ffffffffffffffffffffffffffffffffffffffff168473ffffffffffffffffffffffffffffffffffffffff161480611cdc5750611cdb8185611722565b5b80611d1a57508373ffffffffffffffffffffffffffffffffffffffff16611d02846107fd565b73ffffffffffffffffffffffffffffffffffffffff16145b91505092915050565b8273ffffffffffffffffffffffffffffffffffffffff16611d4382610cab565b73ffffffffffffffffffffffffffffffffffffffff1614611d99576040517f08c379a0000000000000000000000000000000000000000000000000000000008152600401611d9090613bd1565b60405180910390fd5b600073ffffffffffffffffffffffffffffffffffffffff168273ffffffffffffffffffffffffffffffffffffffff1603611e08576040517f08c379a0000000000000000000000000000000000000000000000000000000008152600401611dff90613c63565b60405180910390fd5b611e1583838360016124b3565b8273ffffffffffffffffffffffffffffffffffffffff16611e3582610cab565b73ffffffffffffffffffffffffffffffffffffffff1614611e8b576040517f08c379a0000000000000000000000000000000000000000000000000000000008152600401611e8290613bd1565b60405180910390fd5b6004600082815260200190815260200160002060006101000a81549073ffffffffffffffffffffffffffffffffffffffff02191690556001600360008573ffffffffffffffffffffffffffffffffffffffff1673ffffffffffffffffffffffffffffffffffffffff168152602001908152602001600020600082825403925050819055506001600360008473ffffffffffffffffffffffffffffffffffffffff1673ffffffffffffffffffffffffffffffffffffffff16815260200190815260200160002060008282540192505081905550816002600083815260200190815260200160002060006101000a81548173ffffffffffffffffffffffffffffffffffffffff021916908373ffffffffffffffffffffffffffffffffffffffff160217905550808273ffffffffffffffffffffffffffffffffffffffff168473ffffffffffffffffffffffffffffffffffffffff167fddf252ad1be2c89b69c2b068fc378daa952ba7f163c4a11628f55a4df523b3ef60405160405180910390a461201783838360016125d9565b505050565b50565b6120276118ee565b73ffffffffffffffffffffffffffffffffffffffff16612045610f92565b73ffffffffffffffffffffffffffffffffffffffff161461209b576040517f08c379a000000000000000000000000000000000000000000000000000000000815260040161209290613ccf565b60405180910390fd5b565b60006002600083815260200190815260200160002060009054906101000a900473ffffffffffffffffffffffffffffffffffffffff169050919050565b6000600760009054906101000a900473ffffffffffffffffffffffffffffffffffffffff16905081600760006101000a81548173ffffffffffffffffffffffffffffffffffffffff021916908373ffffffffffffffffffffffffffffffffffffffff1602179055508173ffffffffffffffffffffffffffffffffffffffff168173ffffffffffffffffffffffffffffffffffffffff167f8be0079c531659141344cd1fd0a4f28419497f9722a3daafe3b4186f6b6457e060405160405180910390a35050565b8173ffffffffffffffffffffffffffffffffffffffff168373ffffffffffffffffffffffffffffffffffffffff160361220e576040517f08c379a000000000000000000000000000000000000000000000000000000000815260040161220590613d3b565b60405180910390fd5b80600560008573ffffffffffffffffffffffffffffffffffffffff1673ffffffffffffffffffffffffffffffffffffffff16815260200190815260200160002060008473ffffffffffffffffffffffffffffffffffffffff1673ffffffffffffffffffffffffffffffffffffffff16815260200190815260200160002060006101000a81548160ff0219169083151502179055508173ffffffffffffffffffffffffffffffffffffffff168373ffffffffffffffffffffffffffffffffffffffff167f17307eab39ab6107e8899845ad3d59bd9653f200f220920489ca2b5937696c31836040516122ff9190612cf8565b60405180910390a3505050565b612317848484611d23565b612323848484846125df565b612362576040517f08c379a000000000000000000000000000000000000000000000000000000000815260040161235990613dcd565b60405180910390fd5b50505050565b606060405180602001604052806000815250905090565b606061238a826118a3565b6000612394612368565b905060008151116123b457604051806020016040528060008152506123df565b806123be84612766565b6040516020016123cf929190613a20565b6040516020818303038152906040525b915050919050565b60008073ffffffffffffffffffffffffffffffffffffffff166124098361209d565b73ffffffffffffffffffffffffffffffffffffffff1614159050919050565b612442828260405180602001604052806000815250612834565b5050565b61244f826123e7565b61248e576040517f08c379a000000000000000000000000000000000000000000000000000000000815260040161248590613e5f565b60405180910390fd5b806006600084815260200190815260200160002090816124ae919061402b565b505050565b60018111156125d357600073ffffffffffffffffffffffffffffffffffffffff168473ffffffffffffffffffffffffffffffffffffffff16146125475780600360008673ffffffffffffffffffffffffffffffffffffffff1673ffffffffffffffffffffffffffffffffffffffff168152602001908152602001600020600082825461253f91906140fd565b925050819055505b600073ffffffffffffffffffffffffffffffffffffffff168373ffffffffffffffffffffffffffffffffffffffff16146125d25780600360008573ffffffffffffffffffffffffffffffffffffffff1673ffffffffffffffffffffffffffffffffffffffff16815260200190815260200160002060008282546125ca919061385b565b925050819055505b5b50505050565b50505050565b60006126008473ffffffffffffffffffffffffffffffffffffffff1661288f565b15612759578373ffffffffffffffffffffffffffffffffffffffff1663150b7a026126296118ee565b8786866040518563ffffffff1660e01b815260040161264b9493929190614186565b6020604051808303816000875af192505050801561268757506040513d601f19601f8201168201806040525081019061268491906141e7565b60015b612709573d80600081146126b7576040519150601f19603f3d011682016040523d82523d6000602084013e6126bc565b606091505b506000815103612701576040517f08c379a00000000000000000000000000000000000000000000000000000000081526004016126f890613dcd565b60405180910390fd5b805181602001fd5b63150b7a0260e01b7bffffffffffffffffffffffffffffffffffffffffffffffffffffffff1916817bffffffffffffffffffffffffffffffffffffffffffffffffffffffff19161491505061275e565b600190505b949350505050565b606060006001612775846128b2565b01905060008167ffffffffffffffff81111561279457612793612f1f565b5b6040519080825280601f01601f1916602001820160405280156127c65781602001600182028036833780820191505090505b509050600082602001820190505b600115612829578080600190039150507f3031323334353637383961626364656600000000000000000000000000000000600a86061a8153600a858161281d5761281c613ad6565b5b049450600085036127d4575b819350505050919050565b61283e8383612a05565b61284b60008484846125df565b61288a576040517f08c379a000000000000000000000000000000000000000000000000000000000815260040161288190613dcd565b60405180910390fd5b505050565b6000808273ffffffffffffffffffffffffffffffffffffffff163b119050919050565b600080600090507a184f03e93ff9f4daa797ed6e38ed64bf6a1f0100000000000000008310612910577a184f03e93ff9f4daa797ed6e38ed64bf6a1f010000000000000000838161290657612905613ad6565b5b0492506040810190505b6d04ee2d6d415b85acef8100000000831061294d576d04ee2d6d415b85acef8100000000838161294357612942613ad6565b5b0492506020810190505b662386f26fc10000831061297c57662386f26fc10000838161297257612971613ad6565b5b0492506010810190505b6305f5e10083106129a5576305f5e100838161299b5761299a613ad6565b5b0492506008810190505b61271083106129ca5761271083816129c0576129bf613ad6565b5b0492506004810190505b606483106129ed57606483816129e3576129e2613ad6565b5b0492506002810190505b600a83106129fc576001810190505b80915050919050565b600073ffffffffffffffffffffffffffffffffffffffff168273ffffffffffffffffffffffffffffffffffffffff1603612a74576040517f08c379a0000000000000000000000000000000000000000000000000000000008152600401612a6b90614260565b60405180910390fd5b612a7d816123e7565b15612abd576040517f08c379a0000000000000000000000000000000000000000000000000000000008152600401612ab4906142cc565b60405180910390fd5b612acb6000838360016124b3565b612ad4816123e7565b15612b14576040517f08c379a0000000000000000000000000000000000000000000000000000000008152600401612b0b906142cc565b60405180910390fd5b6001600360008473ffffffffffffffffffffffffffffffffffffffff1673ffffffffffffffffffffffffffffffffffffffff16815260200190815260200160002060008282540192505081905550816002600083815260200190815260200160002060006101000a81548173ffffffffffffffffffffffffffffffffffffffff021916908373ffffffffffffffffffffffffffffffffffffffff160217905550808273ffffffffffffffffffffffffffffffffffffffff16600073ffffffffffffffffffffffffffffffffffffffff167fddf252ad1be2c89b69c2b068fc378daa952ba7f163c4a11628f55a4df523b3ef60405160405180910390a4612c1e6000838360016125d9565b5050565b6040518060600160405280600390602082028036833780820191505090505090565b6000604051905090565b600080fd5b600080fd5b60007fffffffff0000000000000000000000000000000000000000000000000000000082169050919050565b612c8d81612c58565b8114612c9857600080fd5b50565b600081359050612caa81612c84565b92915050565b600060208284031215612cc657612cc5612c4e565b5b6000612cd484828501612c9b565b91505092915050565b60008115159050919050565b612cf281612cdd565b82525050565b6000602082019050612d0d6000830184612ce9565b92915050565b600081519050919050565b600082825260208201905092915050565b60005b83811015612d4d578082015181840152602081019050612d32565b60008484015250505050565b6000601f19601f8301169050919050565b6000612d7582612d13565b612d7f8185612d1e565b9350612d8f818560208601612d2f565b612d9881612d59565b840191505092915050565b60006020820190508181036000830152612dbd8184612d6a565b905092915050565b6000819050919050565b612dd881612dc5565b8114612de357600080fd5b50565b600081359050612df581612dcf565b92915050565b600060208284031215612e1157612e10612c4e565b5b6000612e1f84828501612de6565b91505092915050565b600073ffffffffffffffffffffffffffffffffffffffff82169050919050565b6000612e5382612e28565b9050919050565b612e6381612e48565b82525050565b6000602082019050612e7e6000830184612e5a565b92915050565b612e8d81612e48565b8114612e9857600080fd5b50565b600081359050612eaa81612e84565b92915050565b60008060408385031215612ec757612ec6612c4e565b5b6000612ed585828601612e9b565b9250506020612ee685828601612de6565b9150509250929050565b612ef981612dc5565b82525050565b6000602082019050612f146000830184612ef0565b92915050565b600080fd5b7f4e487b7100000000000000000000000000000000000000000000000000000000600052604160045260246000fd5b612f5782612d59565b810181811067ffffffffffffffff82111715612f7657612f75612f1f565b5b80604052505050565b6000612f89612c44565b9050612f958282612f4e565b919050565b600067ffffffffffffffff821115612fb557612fb4612f1f565b5b602082029050602081019050919050565b600080fd5b6000612fde612fd984612f9a565b612f7f565b9050808382526020820190506020840283018581111561300157613000612fc6565b5b835b8181101561302a57806130168882612de6565b845260208401935050602081019050613003565b5050509392505050565b600082601f83011261304957613048612f1a565b5b8135613059848260208601612fcb565b91505092915050565b6000806040838503121561307957613078612c4e565b5b600061308785828601612de6565b925050602083013567ffffffffffffffff8111156130a8576130a7612c53565b5b6130b485828601613034565b9150509250929050565b6000806000606084860312156130d7576130d6612c4e565b5b60006130e586828701612e9b565b93505060206130f686828701612e9b565b925050604061310786828701612de6565b9150509250925092565b600060039050919050565b600081905092915050565b6000819050919050565b61313a81612dc5565b82525050565b600061314c8383613131565b60208301905092915050565b6000602082019050919050565b61316e81613111565b613178818461311c565b925061318382613127565b8060005b838110156131b457815161319b8782613140565b96506131a683613158565b925050600181019050613187565b505050505050565b60006060820190506131d16000830184613165565b92915050565b6000602082840312156131ed576131ec612c4e565b5b60006131fb84828501612e9b565b91505092915050565b61320d81612cdd565b811461321857600080fd5b50565b60008135905061322a81613204565b92915050565b6000806040838503121561324757613246612c4e565b5b600061325585828601612e9b565b92505060206132668582860161321b565b9150509250929050565b7f4e487b7100000000000000000000000000000000000000000000000000000000600052602160045260246000fd5b600381106132b0576132af613270565b5b50565b60008190506132c18261329f565b919050565b60006132d1826132b3565b9050919050565b6132e1816132c6565b82525050565b60006020820190506132fc60008301846132d8565b92915050565b600080fd5b600067ffffffffffffffff82111561332257613321612f1f565b5b61332b82612d59565b9050602081019050919050565b82818337600083830152505050565b600061335a61335584613307565b612f7f565b90508281526020810184848401111561337657613375613302565b5b613381848285613338565b509392505050565b600082601f83011261339e5761339d612f1a565b5b81356133ae848260208601613347565b91505092915050565b600080600080608085870312156133d1576133d0612c4e565b5b60006133df87828801612e9b565b94505060206133f087828801612e9b565b935050604061340187828801612de6565b925050606085013567ffffffffffffffff81111561342257613421612c53565b5b61342e87828801613389565b91505092959194509250565b6000806040838503121561345157613450612c4e565b5b600061345f85828601612e9b565b925050602061347085828601612e9b565b9150509250929050565b7f4e487b7100000000000000000000000000000000000000000000000000000000600052602260045260246000fd5b600060028204905060018216806134c157607f821691505b6020821081036134d4576134d361347a565b5b50919050565b7f4552433732313a20617070726f76616c20746f2063757272656e74206f776e6560008201527f7200000000000000000000000000000000000000000000000000000000000000602082015250565b6000613536602183612d1e565b9150613541826134da565b604082019050919050565b6000602082019050818103600083015261356581613529565b9050919050565b7f4552433732313a20617070726f76652063616c6c6572206973206e6f7420746f60008201527f6b656e206f776e6572206f7220617070726f76656420666f7220616c6c000000602082015250565b60006135c8603d83612d1e565b91506135d38261356c565b604082019050919050565b600060208201905081810360008301526135f7816135bb565b9050919050565b60006040820190506136136000830185612e5a565b6136206020830184612e5a565b9392505050565b7f4552433732313a2063616c6c6572206973206e6f7420746f6b656e206f776e6560008201527f72206f7220617070726f76656400000000000000000000000000000000000000602082015250565b6000613683602d83612d1e565b915061368e82613627565b604082019050919050565b600060208201905081810360008301526136b281613676565b9050919050565b600081905092915050565b50565b60006136d46000836136b9565b91506136df826136c4565b600082019050919050565b60006136f5826136c7565b9150819050919050565b7f4552433732313a20696e76616c696420746f6b656e2049440000000000000000600082015250565b6000613735601883612d1e565b9150613740826136ff565b602082019050919050565b6000602082019050818103600083015261376481613728565b9050919050565b7f4552433732313a2061646472657373207a65726f206973206e6f74206120766160008201527f6c6964206f776e65720000000000000000000000000000000000000000000000602082015250565b60006137c7602983612d1e565b91506137d28261376b565b604082019050919050565b600060208201905081810360008301526137f6816137ba565b9050919050565b7f4e487b7100000000000000000000000000000000000000000000000000000000600052603260045260246000fd5b7f4e487b7100000000000000000000000000000000000000000000000000000000600052601160045260246000fd5b600061386682612dc5565b915061387183612dc5565b92508282019050808211156138895761388861382c565b5b92915050565b600061389a82612dc5565b91507fffffffffffffffffffffffffffffffffffffffffffffffffffffffffffffffff82036138cc576138cb61382c565b5b600182019050919050565b6000819050919050565b6138ea816138d7565b82525050565b600067ffffffffffffffff82169050919050565b61390d816138f0565b82525050565b600061ffff82169050919050565b61392a81613913565b82525050565b600063ffffffff82169050919050565b61394981613930565b82525050565b600060a08201905061396460008301886138e1565b6139716020830187613904565b61397e6040830186613921565b61398b6060830185613940565b6139986080830184613940565b9695505050505050565b6000815190506139b181612dcf565b92915050565b6000602082840312156139cd576139cc612c4e565b5b60006139db848285016139a2565b91505092915050565b600081905092915050565b60006139fa82612d13565b613a0481856139e4565b9350613a14818560208601612d2f565b80840191505092915050565b6000613a2c82856139ef565b9150613a3882846139ef565b91508190509392505050565b7f4f776e61626c653a206e6577206f776e657220697320746865207a65726f206160008201527f6464726573730000000000000000000000000000000000000000000000000000602082015250565b6000613aa0602683612d1e565b9150613aab82613a44565b604082019050919050565b60006020820190508181036000830152613acf81613a93565b9050919050565b7f4e487b7100000000000000000000000000000000000000000000000000000000600052601260045260246000fd5b6000613b1082612dc5565b9150613b1b83612dc5565b925082613b2b57613b2a613ad6565b5b828206905092915050565b6000604082019050613b4b60008301856132d8565b613b586020830184612e5a565b9392505050565b7f4552433732313a207472616e736665722066726f6d20696e636f72726563742060008201527f6f776e6572000000000000000000000000000000000000000000000000000000602082015250565b6000613bbb602583612d1e565b9150613bc682613b5f565b604082019050919050565b60006020820190508181036000830152613bea81613bae565b9050919050565b7f4552433732313a207472616e7366657220746f20746865207a65726f2061646460008201527f7265737300000000000000000000000000000000000000000000000000000000602082015250565b6000613c4d602483612d1e565b9150613c5882613bf1565b604082019050919050565b60006020820190508181036000830152613c7c81613c40565b9050919050565b7f4f776e61626c653a2063616c6c6572206973206e6f7420746865206f776e6572600082015250565b6000613cb9602083612d1e565b9150613cc482613c83565b602082019050919050565b60006020820190508181036000830152613ce881613cac565b9050919050565b7f4552433732313a20617070726f766520746f2063616c6c657200000000000000600082015250565b6000613d25601983612d1e565b9150613d3082613cef565b602082019050919050565b60006020820190508181036000830152613d5481613d18565b9050919050565b7f4552433732313a207472616e7366657220746f206e6f6e20455243373231526560008201527f63656976657220696d706c656d656e7465720000000000000000000000000000602082015250565b6000613db7603283612d1e565b9150613dc282613d5b565b604082019050919050565b60006020820190508181036000830152613de681613daa565b9050919050565b7f45524337323155524953746f726167653a2055524920736574206f66206e6f6e60008201527f6578697374656e7420746f6b656e000000000000000000000000000000000000602082015250565b6000613e49602e83612d1e565b9150613e5482613ded565b604082019050919050565b60006020820190508181036000830152613e7881613e3c565b9050919050565b60008190508160005260206000209050919050565b60006020601f8301049050919050565b600082821b905092915050565b600060088302613ee17fffffffffffffffffffffffffffffffffffffffffffffffffffffffffffffffff82613ea4565b613eeb8683613ea4565b95508019841693508086168417925050509392505050565b6000819050919050565b6000613f28613f23613f1e84612dc5565b613f03565b612dc5565b9050919050565b6000819050919050565b613f4283613f0d565b613f56613f4e82613f2f565b848454613eb1565b825550505050565b600090565b613f6b613f5e565b613f76818484613f39565b505050565b5b81811015613f9a57613f8f600082613f63565b600181019050613f7c565b5050565b601f821115613fdf57613fb081613e7f565b613fb984613e94565b81016020851015613fc8578190505b613fdc613fd485613e94565b830182613f7b565b50505b505050565b600082821c905092915050565b600061400260001984600802613fe4565b1980831691505092915050565b600061401b8383613ff1565b9150826002028217905092915050565b61403482612d13565b67ffffffffffffffff81111561404d5761404c612f1f565b5b61405782546134a9565b614062828285613f9e565b600060209050601f8311600181146140955760008415614083578287015190505b61408d858261400f565b8655506140f5565b601f1984166140a386613e7f565b60005b828110156140cb578489015182556001820191506020850194506020810190506140a6565b868310156140e857848901516140e4601f891682613ff1565b8355505b6001600288020188555050505b505050505050565b600061410882612dc5565b915061411383612dc5565b925082820390508181111561412b5761412a61382c565b5b92915050565b600081519050919050565b600082825260208201905092915050565b600061415882614131565b614162818561413c565b9350614172818560208601612d2f565b61417b81612d59565b840191505092915050565b600060808201905061419b6000830187612e5a565b6141a86020830186612e5a565b6141b56040830185612ef0565b81810360608301526141c7818461414d565b905095945050505050565b6000815190506141e181612c84565b92915050565b6000602082840312156141fd576141fc612c4e565b5b600061420b848285016141d2565b91505092915050565b7f4552433732313a206d696e7420746f20746865207a65726f2061646472657373600082015250565b600061424a602083612d1e565b915061425582614214565b602082019050919050565b600060208201905081810360008301526142798161423d565b9050919050565b7f4552433732313a20746f6b656e20616c7265616479206d696e74656400000000600082015250565b60006142b6601c83612d1e565b91506142c182614280565b602082019050919050565b600060208201905081810360008301526142e5816142a9565b905091905056fea26469706673582212201f2504f57a179ccd197c1f3024e80a1b036f73caeaacc7f8519fc606bbdb4b6264736f6c63430008110033",
  "linkReferences": {},
  "deployedLinkReferences": {}
}